:020000040800F2
:1000000000500020F9920008999000089F90000885
:10001000A5900008AB900008B19000080000000017
:10002000000000000000000000000000412F000858
:10003000B790000800000000213100086931000875
:100040004193000841930008419300084193000840
:100050004193000841930008419300084193000830
:100060004193000841930008419300084193000820
:100070004193000841930008419300084193000810
:100080004193000841930008419300084193000800
:1000900041930008419300084193000841930008F0
:1000A00041930008419300084193000841930008E0
:1000B0004193000841930008C5900008419300084F
:1000C00041930008419300084193000841930008C0
:1000D00041930008419300084193000841930008B0
:1000E000419300084193000841930008000000007C
:1000F0000000000000000000000000000000000000
:0C01000000000000000000005FF808F1A3
:1001100010B5054C237833B9044B13B10448AFF341
:1001200000800123237010BD6C050020000000003A
:10013000CCC2000808B5034B1BB103490348AFF319
:10014000008008BD0000000070050020CCC200083F
:1001500081F0004102E000BF83F0004330B54FEA78
:1001600041044FEA430594EA050F08BF90EA020FE5
:100170001FBF54EA000C55EA020C7FEA645C7FEA78
:10018000655C00F0E2804FEA5454D4EB5555B8BF9B
:100190006D420CDD2C4480EA020281EA030382EA0C
:1001A000000083EA010180EA020281EA0303362D9E
:1001B00088BF30BD11F0004F4FEA01314FF4801C71
:1001C0004CEA113102D0404261EB410113F0004F83
:1001D0004FEA03334CEA133302D0524263EB43033A
:1001E00094EA050F00F0A780A4F10104D5F1200ED8
:1001F0000DDB02FA0EFC22FA05F2801841F1000133
:1002000003FA0EF2801843FA05F359410EE0A5F106
:1002100020050EF1200E012A03FA0EFC28BF4CF037
:10022000020C43FA05F3C01851EBE37101F00045ED
:1002300007D54FF0000EDCF1000C7EEB00006EEBFA
:100240000101B1F5801F1BD3B1F5001F0CD3490884
:100250005FEA30004FEA3C0C04F101044FEA4452DB
:1002600012F5800F80F09A80BCF1004F08BF5FEA62
:10027000500C50F1000041EB045141EA050130BD42
:100280005FEA4C0C404141EB0101013C28BFB1F554
:10029000801FE9D291F0000F04BF01460020B1FA9F
:1002A00081F308BF2033A3F10B03B3F120020CDA72
:1002B0000C3208DD02F1140CC2F10C0201FA0CF050
:1002C00021FA02F10CE002F11402D8BFC2F1200CB5
:1002D00001FA02F120FA0CFCDCBF41EA0C0190406B
:1002E000E41AA2BF01EB0451294330BD6FEA0404B4
:1002F0001F3C1CDA0C340EDC04F11404C4F120029F
:1003000020FA04F001FA02F340EA030021FA04F3B0
:1003100045EA030130BDC4F10C04C4F1200220FA07
:1003200002F001FA04F340EA0300294630BD21FA45
:1003300004F0294630BD94F0000F83F4801306BF0B
:1003400081F480110134013D4EE77FEA645C18BFFF
:100350007FEA655C29D094EA050F08BF90EA020F96
:1003600005D054EA000C04BF1946104630BD91EA8E
:10037000030F1EBF0021002030BD5FEA545C05D191
:100380004000494128BF41F0004130BD14F58004D0
:100390003CBF01F5801130BD01F0004545F0FE4144
:1003A00041F470014FF0000030BD7FEA645C1ABF79
:1003B000194610467FEA655C1CBF0B46024650EAB0
:1003C000013406BF52EA033591EA030F41F40021DC
:1003D00030BD00BF90F0000F04BF0021704730B562
:1003E0004FF4806404F132044FF000054FF0000137
:1003F00050E700BF90F0000F04BF0021704730B5F8
:100400004FF4806404F1320410F0004548BF4042CC
:100410004FF000013EE700BF42004FEAE2014FEA21
:1004200031014FEA02701FBF12F07F4393F07F4FFC
:1004300081F06051704732F07F4208BF704793F0FF
:100440007F4F04BF41F40021704730B54FF4607412
:1004500001F0004521F000411CE700BF50EA010215
:1004600008BF704730B54FF000050AE050EA0102BE
:1004700008BF704730B511F0004502D5404261EB2E
:1004800041014FF4806404F132045FEA915C3FF46F
:10049000D8AE4FF003025FEADC0C18BF03325FEA0C
:1004A000DC0C18BF033202EBDC02C2F1200300FABD
:1004B00003FC20FA02F001FA03FE40EA0E0021FAE2
:1004C00002F11444BDE600BF70B54FF0FF0C4CF4D0
:1004D000E06C1CEA11541DBF1CEA135594EA0C0F82
:1004E00095EA0C0F00F0DEF82C4481EA030621EABD
:1004F0004C5123EA4C5350EA013518BF52EA0335F8
:1005000041F4801143F4801338D0A0FB02CE4FF0A9
:100510000005E1FB02E506F00042E0FB03E54FF0D9
:100520000006E1FB03569CF0000F18BF4EF0010ED1
:10053000A4F1FF04B6F5007F64F5407404D25FEACD
:100540004E0E6D4146EB060642EAC62141EA555180
:100550004FEAC52040EA5E504FEACE2EB4F1FD0CC2
:1005600088BFBCF5E06F1ED8BEF1004F08BF5FEA40
:10057000500E50F1000041EB045170BD06F00046F2
:1005800046EA010140EA020081EA0301B4EB5C049F
:10059000C2BFD4EB0C0541EA045170BD41F4801197
:1005A0004FF0000E013C00F3AB8014F1360FDEBFBC
:1005B000002001F0004170BDC4F10004203C35DA98
:1005C0000C341BDC04F11404C4F1200500FA05F31B
:1005D00020FA04F001FA05F240EA020001F00042BC
:1005E00021F0004110EBD37021FA04F642EB060132
:1005F0005EEA430E08BF20EAD37070BDC4F10C045C
:10060000C4F1200500FA04F320FA05F001FA04F21F
:1006100040EA020001F0004110EBD37041F100010B
:100620005EEA430E08BF20EAD37070BDC4F1200516
:1006300000FA05F24EEA020E20FA04F301FA05F27E
:1006400043EA020321FA04F001F0004121FA04F226
:1006500020EA020000EBD3705EEA430E08BF20EAF6
:10066000D37070BD94F0000F0FD101F00046400030
:1006700041EB010111F4801F08BF013CF7D041EAB2
:10068000060195F0000F18BF704703F000465200B6
:1006900043EB030313F4801F08BF013DF7D043EA87
:1006A0000603704794EA0C0F0CEA135518BF95EA3D
:1006B0000C0F0CD050EA410618BF52EA4306D1D1C4
:1006C00081EA030101F000414FF0000070BD50EAE3
:1006D000410606BF1046194652EA430619D094EA6D
:1006E0000C0F02D150EA013613D195EA0C0F05D157
:1006F00052EA03361CBF104619460AD181EA0301AB
:1007000001F0004141F0FE4141F470014FF0000062
:1007100070BD41F0FE4141F4780170BD70B54FF0FD
:10072000FF0C4CF4E06C1CEA11541DBF1CEA13557D
:1007300094EA0C0F95EA0C0F00F0A7F8A4EB05045F
:1007400081EA030E52EA03354FEA013100F0888056
:100750004FEA03334FF0805545EA131343EA12631F
:100760004FEA022245EA111545EA10654FEA0026D4
:100770000EF000419D4208BF964244F1FD0404F58D
:10078000407402D25B084FEA3202B61A65EB0305E9
:100790005B084FEA32024FF480104FF4002CB6EBA6
:1007A000020E75EB030E22BFB61A754640EA0C0026
:1007B0005B084FEA3202B6EB020E75EB030E22BF66
:1007C000B61A754640EA5C005B084FEA3202B6EBA7
:1007D000020E75EB030E22BFB61A754640EA9C0066
:1007E0005B084FEA3202B6EB020E75EB030E22BF36
:1007F000B61A754640EADC0055EA060E18D04FEAF4
:10080000051545EA16754FEA06164FEAC30343EA93
:1008100052734FEAC2025FEA1C1CC0D111F4801F60
:100820000BD141EA00014FF000004FF0004CB6E759
:1008300011F4801F04BF01430020B4F1FD0C88BFF8
:10084000BCF5E06F3FF6AFAEB5EB030C04BFB6EB03
:10085000020C5FEA500C50F1000041EB045170BDF6
:100860000EF0004E4EEA113114EB5C04C2BFD4EB23
:100870000C0541EA045170BD41F480114FF0000EA7
:10088000013C90E645EA060E8DE60CEA135594EA23
:100890000C0F08BF95EA0C0F3FF43BAF94EA0C0F26
:1008A0000AD150EA01347FF434AF95EA0C0F7FF49B
:1008B00025AF104619462CE795EA0C0F06D152EAEF
:1008C00003353FF4FDAE1046194622E750EA4106D3
:1008D00018BF52EA43067FF4C5AE50EA41047FF4E4
:1008E0000DAF52EA43057FF4EBAE12E74FEA410247
:1008F000B2F1E04324BFB3F5001CDCF1FE5C0DD97E
:1009000001F0004C4FEAC0024CEA5070B2F1004FC7
:1009100040EB830008BF20F00100704711F0804FCA
:1009200021D113F13872BCBF01F00040704741F48F
:1009300080114FEA5252C2F11802C2F1200C10FA93
:100940000CF320FA02F018BF40F001004FEAC12377
:100950004FEAD32303FA0CFC40EA0C0023FA02F31B
:100960004FEA4303CCE77FEA625307D150EA0133F1
:100970001EBF4FF0FE4040F44000704701F00040C1
:1009800040F0FE4040F40000704700BF80F000409F
:1009900002E000BF81F0004142001FBF5FEA410357
:1009A00092EA030F7FEA226C7FEA236C6AD04FEA57
:1009B0001262D2EB1363C1BFD2184140484041409C
:1009C000B8BF5B42192B88BF704710F0004F40F44E
:1009D000000020F07F4018BF404211F0004F41F46A
:1009E000000121F07F4118BF494292EA030F3FD036
:1009F000A2F1010241FA03FC10EB0C00C3F1200349
:100A000001FA03F100F0004302D5494260EB4000D7
:100A1000B0F5000F13D3B0F1807F06D340084FEA42
:100A2000310102F10102FE2A51D2B1F1004F40EB37
:100A3000C25008BF20F0010040EA0300704749009F
:100A400040EB0000013A28BFB0F5000FEDD2B0FA3C
:100A500080FCACF1080CB2EB0C0200FA0CF0AABF5F
:100A600000EBC25052421843BCBFD04018437047FD
:100A700092F0000F81F4000106BF80F40000013203
:100A8000013BB5E74FEA41037FEA226C18BF7FEADA
:100A9000236C21D092EA030F04D092F0000F08BF1C
:100AA0000846704790EA010F1CBF0020704712F003
:100AB0007F4F04D1400028BF40F00040704712F142
:100AC00000723CBF00F50000704700F0004343F0A7
:100AD000FE4040F4000070477FEA226216BF0846DD
:100AE0007FEA23630146420206BF5FEA412390EAA0
:100AF000010F40F4800070474FF0000304E000BF96
:100B000010F0004348BF40425FEA000C08BF704746
:100B100043F0964301464FF000001CE050EA01020A
:100B200008BF70474FF000030AE000BF50EA01021F
:100B300008BF704711F0004302D5404261EB41010C
:100B40005FEA010C02BF84460146002043F0B64331
:100B500008BFA3F18053A3F50003BCFA8CF2083A56
:100B6000A3EBC25310DB01FA02FC634400FA02FC5F
:100B7000C2F12002BCF1004F20FA02F243EB020066
:100B800008BF20F00100704702F1200201FA02FCC8
:100B9000C2F1200250EA4C0021FA02F243EB0200BB
:100BA00008BF20EADC7070474FF0FF0C1CEAD052FF
:100BB0001EBF1CEAD15392EA0C0F93EA0C0F6FD0C0
:100BC0001A4480EA010C400218BF5FEA41211ED09E
:100BD0004FF0006343EA501043EA5111A0FB01318A
:100BE0000CF00040B1F5000F3EBF490041EAD3715F
:100BF0005B0040EA010062F17F02FD2A1DD8B3F1DB
:100C0000004F40EBC25008BF20F00100704790F049
:100C1000000F0CF0004C08BF49024CEA502040EA9B
:100C200051207F3AC2BFD2F1FF0340EAC250704761
:100C300040F400004FF00003013A5DDC12F1190F9F
:100C4000DCBF00F000407047C2F10002410021FA11
:100C500002F1C2F1200200FA02FC5FEA310040F129
:100C6000000053EA4C0308BF20EADC70704792F0A2
:100C7000000F00F0004C02BF400010F4000F013ADA
:100C8000F9D040EA0C0093F0000F01F0004C02BFD5
:100C9000490011F4000F013BF9D041EA0C018FE744
:100CA0000CEAD15392EA0C0F18BF93EA0C0F0AD04A
:100CB00030F0004C18BF31F0004CD8D180EA010070
:100CC00000F00040704790F0000F17BF90F0004F09
:100CD000084691F0000F91F0004F14D092EA0C0FEB
:100CE00001D142020FD193EA0C0F03D14B0218BF7E
:100CF000084608D180EA010000F0004040F0FE40C4
:100D000040F40000704740F0FE4040F4400070475F
:100D10004FF0FF0C1CEAD0521EBF1CEAD15392EADE
:100D20000C0F93EA0C0F69D0A2EB030280EA010CCE
:100D300049024FEA402037D04FF0805343EA111167
:100D400043EA10130CF000408B4238BF5B0042F1C5
:100D50007D024FF4000C8B4224BF5B1A40EA0C006A
:100D6000B3EB510F24BFA3EB510340EA5C00B3EB9C
:100D7000910F24BFA3EB910340EA9C00B3EBD10F8A
:100D800024BFA3EBD10340EADC001B0118BF5FEADC
:100D90001C1CE0D1FD2A3FF650AF8B4240EBC25005
:100DA00008BF20F0010070470CF0004C4CEA5020C6
:100DB0007F32C2BFD2F1FF0340EAC250704740F415
:100DC00000004FF00003013A37E792F0000F00F007
:100DD000004C02BF400010F4000F013AF9D040EA85
:100DE0000C0093F0000F01F0004C02BF490011F419
:100DF000000F013BF9D041EA0C0195E70CEAD15311
:100E000092EA0C0F08D142027FF47DAF93EA0C0FF7
:100E10007FF470AF084676E793EA0C0F04D14B02DB
:100E20003FF44CAF08466EE730F0004C18BF31F08D
:100E3000004CCAD130F000427FF45CAF31F0004387
:100E40007FF43CAF5FE700BF4FF0FF3C06E000BF20
:100E50004FF0010C02E000BF4FF0010C4DF804CD43
:100E60004FEA40024FEA41037FEA226C18BF7FEA53
:100E7000236C11D001B052EA530C18BF90EA010F55
:100E800058BFB2EB030088BFC81738BF6FEAE170E4
:100E900018BF40F0010070477FEA226C02D15FEA80
:100EA000402C05D17FEA236CE4D15FEA412CE1D0EC
:100EB0005DF8040B704700BF844608466146FFE7B3
:100EC0000FB5FFF7C9FF002848BF10F1000F0FBD95
:100ED0004DF808EDFFF7F4FF0CBF012000205DF88E
:100EE00008FB00BF4DF808EDFFF7EAFF34BF012013
:100EF00000205DF808FB00BF4DF808EDFFF7E0FFAC
:100F000094BF012000205DF808FB00BF4DF808EDFC
:100F1000FFF7D2FF94BF012000205DF808FB00BF5F
:100F20004DF808EDFFF7C8FF34BF012000205DF841
:100F300008FB00BF4FEA4002B2F1FE4F0FD34FF063
:100F40009E03B3EB12620DD94FEA002343F0004336
:100F500010F0004F23FA02F018BF404270474FF0E4
:100F60000000704712F1610F01D1420205D110F06B
:100F7000004008BF6FF0004070474FF0000070471E
:100F800042000ED2B2F1FE4F0BD34FF09E03B3EBF3
:100F9000126209D44FEA002343F0004323FA02F01F
:100FA00070474FF00000704712F1610F01D142020B
:100FB00002D14FF0FF3070474FF00000704700BF84
:100FC0007BB972B90029BEBF00204FF0004106E096
:100FD00008BF00281CBF6FF000414FF0FF3000F049
:100FE000A9B9ADF1080C6DE904CE002909DB002B8D
:100FF0001ADB00F035F8DDF804E0DDE9022304B087
:101000007047404261EB4101002B1BDB00F028F8E8
:10101000DDF804E0DDE9022304B0404261EB410168
:10102000524263EB43037047524263EB430300F0C9
:1010300017F8DDF804E0DDE9022304B0404261EB7B
:1010400041017047524263EB430300F009F8DDF8B9
:1010500004E0DDE9022304B0524263EB430370472E
:101060002DE9F047089E0D4604468846002B4DD1D9
:101070008A42944668D9B2FA82F252B101FA02F376
:10108000C2F1200120FA01F10CFA02FC41EA030846
:1010900094404FEA1C41B8FBF1F71FFA8CFE01FBAC
:1010A000178807FB0EF0230C43EA084398420AD93D
:1010B0001CEB030307F1FF3580F01E81984240F2DC
:1010C0001B81023F63441B1AB3FBF1F001FB103399
:1010D00000FB0EFEA4B244EA0344A6450AD91CEB69
:1010E000040400F1FF3380F00981A64540F2068137
:1010F000644402380021A4EB0E0440EA07401EB10C
:101100000023D440C6E90043BDE8F0878B4208D9EC
:10111000002E00F0EE800021C6E900050846BDE87B
:10112000F087B3FA83F100294AD1AB4202D382425D
:1011300000F2FC80841A65EB030301209846002E20
:10114000E2D0C6E90048DFE702B9FFDEB2FA82F278
:10115000002A40F09180A1EB0C0001214FEA1C47CE
:101160001FFA8CFEB0FBF7F307FB1300250C45EAD2
:1011700000450EFB03F0A84208D91CEB050503F15E
:10118000FF3802D2A84200F2CE8043462D1AB5FBAA
:10119000F7F007FB10550EFB00FEA4B244EA05442D
:1011A000A64508D91CEB040400F1FF3502D2A64580
:1011B00000F2B6802846A4EB0E0440EA03409EE706
:1011C000C1F120078B4022FA07FC4CEA030C25FAF8
:1011D00007FA4FEA1C49BAFBF9F820FA07F309FBB2
:1011E00018AA8D401FFA8CFE1D4300FA01F308FB7C
:1011F0000EF02C0C44EA0A44A04202FA01F20BD988
:101200001CEB040408F1FF3A80F08880A04240F211
:101210008580A8F102086444241AB4FBF9F009FBA4
:10122000104400FB0EFEADB245EA0444A64508D9C1
:101230001CEB040400F1FF356CD2A6456AD90238D4
:10124000644440EA0840A0FB0295A4EB0E04AC42C3
:10125000C846AE4656D353D0002E69D0B3EB080231
:1012600064EB0E0422FA01F304FA07F71F43CC40A3
:10127000C6E90074002147E70CFA02FCC2F1200124
:1012800025FA01F34FEA1C4720FA01F195400D437E
:10129000B3FBF7F107FB11331FFA8CFE280C40EA71
:1012A000034001FB0EF3834204FA02F408D91CEB5D
:1012B000000001F1FF382FD283422DD9023960445A
:1012C000C01AB0FBF7F307FB1300ADB245EA0045C7
:1012D00003FB0EF0A84208D91CEB050503F1FF380B
:1012E00016D2A84214D9023B6544281A43EA0141A8
:1012F00038E73146304607E72F46E4E61846F9E678
:101300004B45A9D2B9EB020865EB0C0E0138A3E7F7
:101310004346EAE7284694E74146D1E7D0467BE7D3
:101320006444023847E7023B65442FE7084606E776
:101330003146E9E6704700BF4FF0FF3C06E000BFD2
:101340004FF0010C02E000BF4FF0010C4DF804CD4E
:101350004FEA410C7FEA6C5C4FEA430C18BF7FEA0E
:101360006C5C1BD001B050EA410C0CBF52EA430C3C
:1013700091EA030F02BF90EA020F0020704710F1BC
:10138000000F91EA030F58BF994208BF90422CBF4B
:10139000D8176FEAE37040F0010070474FEA410C44
:1013A0007FEA6C5C02D150EA013C07D14FEA430C62
:1013B0007FEA6C5CD6D152EA033CD3D05DF8040BD3
:1013C000704700BF8446104662468C461946634605
:1013D00000E000BF01B5FFF7B7FF002848BF10F1DC
:1013E000000F01BD4DF808EDFFF7F4FF0CBF012021
:1013F00000205DF808FB00BF4DF808EDFFF7EAFF9D
:1014000034BF012000205DF808FB00BF4DF808ED57
:10141000FFF7E0FF94BF012000205DF808FB00BF4C
:101420004DF808EDFFF7CEFF94BF012000205DF8D6
:1014300008FB00BF4DF808EDFFF7C4FF34BF0120E3
:1014400000205DF808FB00BF4FEA410C7FEA6C5CAE
:1014500002D150EA013C0AD14FEA430C7FEA6C5CAE
:1014600002D152EA033C02D14FF0000070474FF026
:10147000010070474FEA410212F5001215D211D552
:101480006FF47873B3EB625212D94FEAC12343F081
:10149000004343EA505311F0004F23FA02F018BF03
:1014A000404270474FF00000704750EA013005D1CC
:1014B00011F0004008BF6FF0004070474FF000008F
:1014C000704700BF80B500AF084B1B68074A43F068
:1014D00010031360032000F0F5F8002007F084FDEE
:1014E00007F04AFD0023184680BD00BF00200240DF
:1014F00080B400AF054B1B781A46054B1B6813449C
:10150000034A136000BFBD4680BC70470400002042
:101510008805002080B400AF024B1B681846BD460A
:1015200080BC70478805002080B584B000AF78602B
:10153000FFF7F0FFB8607B68FB60FB68B3F1FF3F2B
:1015400005D00A4B1B781A46FB681344FB6000BFAA
:10155000FFF7E0FF0246BB68D31AFA689A42F7D851
:1015600000BF00BF1037BD4680BD00BF0400002093
:1015700080B485B000AF78607B6803F00703FB6040
:101580000C4BDB68BB60BA684FF6FF031340BB60CF
:10159000FB681A02BB68134343F0BF6343F4003394
:1015A000BB60044ABB68D36000BF1437BD4680BC33
:1015B000704700BF00ED00E080B400AF044BDB6873
:1015C0001B0A03F007031846BD4680BC704700BFE6
:1015D00000ED00E080B483B000AF0346FB7197F9E3
:1015E0000730002B0BDBFB7903F01F02064997F94C
:1015F00007305B09012000FA02F241F8232000BF06
:101600000C37BD4680BC704700E100E080B483B079
:1016100000AF03463960FB7197F90730002B0ADBF6
:101620003B68DAB20C4997F907301201D2B20B4489
:1016300083F800230AE03B68DAB20849FB7903F03B
:101640000F03043B1201D2B20B441A7600BF0C37D1
:10165000BD4680BC704700BF00E100E000ED00E047
:1016600080B489B000AFF860B9607A60FB6803F0BD
:101670000703FB61FB69C3F10703042B28BF0423A5
:10168000BB61FB690433062B02D9FB69033B00E015
:1016900000237B614FF0FF32BB6902FA03F3DA43A8
:1016A000BB681A407B699A404FF0FF317B6901FAB1
:1016B00003F3D9437B680B40134318462437BD46D8
:1016C00080BC704780B582B000AF78607868FFF763
:1016D0004FFF00BF0837BD4680BD80B586B000AF64
:1016E0000346B9607A60FB7300237B61FFF764FFF8
:1016F00078617A68B9687869FFF7B2FF024697F9AE
:101700000F3011461846FFF781FF00BF1837BD465E
:1017100080BD80B582B000AF0346FB7197F90730FA
:101720001846FFF757FF00BF0837BD4680BD0000D1
:1017300080B48BB000AF7860396000237B620023F7
:101740003B6269E101227B6A02FA03F3FB613B68B9
:101750001B68FA691340BB61BA69FB699A4240F0A1
:1017600058813B685B689A4A93425ED0984A93429C
:1017700075D8984A934258D0964A93426FD8964A61
:10178000934252D0944A934269D8944A93424CD09F
:10179000924A934263D8924A934246D0904A9342E7
:1017A0005DD8122B2AD8122B59D801A252F823F057
:1017B0002B18000805180008171800085918000809
:1017C0005F1800085F1800085F1800085F1800081D
:1017D0005F1800085F1800085F1800085F1800080D
:1017E0005F1800085F1800085F1800085F180008FD
:1017F0005F1800080D18000821180008794A934264
:1018000013D02CE03B68DB683B6229E03B68DB6877
:1018100004333B6224E03B68DB6808333B621FE033
:101820003B68DB680C333B621AE03B689B68002B2B
:1018300002D104233B6213E03B689B68012B05D176
:1018400008233B627B68FA691A6109E008233B625E
:101850007B68FA695A6103E000233B6200E000BF45
:10186000BB69FF2B01D87B6801E07B6804337B6197
:10187000BB69FF2B02D87B6A9B0002E07B6A083BB6
:101880009B003B617B691A680F213B6901FA03F3F6
:10189000DB431A40396A3B6901FA03F31A437B6957
:1018A0001A603B685B6803F08053002B00F0B18046
:1018B0004D4B9B694C4A43F0010393614A4B9B6932
:1018C00003F00103BB60BB68484A7B6A9B08023394
:1018D00052F82330FB607B6A03F003039B000F2266
:1018E00002FA03F3DB43FA681340FB607B68404A6B
:1018F000934213D07B683F4A93420DD07B683E4AA7
:10190000934207D07B683D4A934201D1032306E00E
:10191000042304E0022302E0012300E000237A6AAA
:1019200002F0030292009340FA681343FB602F49D0
:101930007B6A9B080233FA6841F823203B685B68A6
:1019400003F48033002B06D02D4B1A682C49BB6959
:1019500013430B6006E02A4B1A68BB69DB43284936
:1019600013400B603B685B6803F40033002B06D028
:10197000234B5A682249BB6913434B6006E0204B56
:101980005A68BB69DB431E4913404B603B685B6888
:1019900003F48013002B06D0194B9A681849BB69D1
:1019A00013438B6006E0164B9A68BB69DB4314490E
:1019B00013408B603B685B6803F40013002B21D05D
:1019C0000F4BDA680E49BB691343CB6021E000BFBF
:1019D0000000321000003110000022100000211021
:1019E0000000121000001110001002400000014021
:1019F00000080140000C01400010014000140140AB
:101A0000000401400B4BDA68BB69DB430949134012
:101A1000CB607B6A01337B623B681A687B6A22FA7F
:101A200003F3002B7FF48EAE00BF00BF2C37BD4602
:101A300080BC70470004014080B485B000AF78607E
:101A40000B467B807B689A687B881340002B02D012
:101A50000123FB7301E00023FB73FB7B1846143763
:101A6000BD4680BC704780B483B000AF78600B4641
:101A70007B8013467B707B78002B03D07A887B6851
:101A80001A6103E07B881A047B681A6100BF0C3777
:101A9000BD4680BC704780B485B000AF78600B460F
:101AA0007B807B68DB68FB607A88FB6813401A04E4
:101AB000FB68D9437B880B401A437B681A6100BFDF
:101AC0001437BD4680BC704780B584B000AF7860E5
:101AD0007B68002B01D101232BE17B6893F83D301B
:101AE000DBB2002B06D17B68002283F83C207868AB
:101AF00002F01CFF7B68242283F83D207B681B6872
:101B00001A687B681B6822F001021A607B681B68F8
:101B10001A687B681B6842F400421A607B681B6885
:101B20001A687B681B6822F400421A6000F0E4FC2B
:101B3000F8607B685B68814A934207D8FB68804AFB
:101B4000934294BF01230023DBB206E0FB687D4A89
:101B5000934294BF01230023DBB2002B01D0012369
:101B6000E7E0FB68784AA2FB03239B0CBB607B6821
:101B70001B685B6823F03F017B681B68BA680A43F7
:101B80005A607B681B681B6A23F03F017B685B68B7
:101B90006A4A934202D8BB68013309E0BB684FF43C
:101BA000967202FB03F3694AA2FB03239B090133EC
:101BB0007A6812680B4313627B681B68DB6923F445
:101BC0004F4222F0FF027B685B685C498B4219D868
:101BD000FB68591E7B685B685B00B1FBF3F3591C23
:101BE00040F6FC730B40002B0AD0FB68591E7B6843
:101BF0005B685B00B1FBF3F30133C3F30B0351E00C
:101C000004234FE07B689B68002B11D1FB68581EB2
:101C10007B6859680B465B000B44B0FBF3F3013360
:101C2000C3F30B03002B0CBF01230023DBB212E034
:101C3000FB68581E7B6859680B469B000B44990053
:101C40000B44B0FBF3F30133C3F30B03002B0CBFC6
:101C500001230023DBB2002B01D0012322E07B68AB
:101C60009B68002B0ED1FB68581E7B6859680B4699
:101C70005B000B44B0FBF3F30133C3F30B0343F4FA
:101C800000430FE0FB68581E7B6859680B469B00B9
:101C90000B4499000B44B0FBF3F30133C3F30B0384
:101CA00043F44043796809681343CB617B681B6840
:101CB0001B6823F0C0017B68DA697B681B6A1A43E2
:101CC0007B681B680A431A607B681B689B6823F467
:101CD000034323F0FF037A6811697A68D2681143DD
:101CE0007A6812680B4393607B681B68DB6823F09B
:101CF000FF017B685A697B689B691A437B681B6894
:101D00000A43DA607B681B681A687B681B6842F0CC
:101D100001021A607B6800221A647B68202283F823
:101D20003D207B6800221A637B68002283F83E20F6
:101D3000002318461037BD4680BD00BFA0860100B5
:101D40007F841E00FF083D0083DE1B43D34D6210DD
:101D500080B586B000AF78607B68002B01D101238D
:101D600072E27B681B6803F00103002B00F08780A0
:101D7000924B5B6803F00C03042B0CD08F4B5B6819
:101D800003F00C03082B12D18C4B5B6803F48033F7
:101D9000B3F5803F0BD1894B1B6803F40033002B54
:101DA0006CD07B685B68002B68D101234CE27B68B8
:101DB0005B68B3F5803F06D1804B1B687F4A43F4D4
:101DC000803313602EE07B685B68002B0CD17B4B6B
:101DD0001B687A4A23F480331360784B1B68774A78
:101DE00023F4802313601DE07B685B68B3F5A02FAC
:101DF0000CD1724B1B68714A43F4802313606F4B04
:101E00001B686E4A43F4803313600BE06B4B1B6816
:101E10006A4A23F480331360684B1B68674A23F4D3
:101E2000802313607B685B68002B13D0FFF772FB85
:101E3000386108E0FFF76EFB02463B69D31A642B5A
:101E400001D9032300E25D4B1B6803F40033002B30
:101E5000F0D014E0FFF75EFB386108E0FFF75AFBB3
:101E600002463B69D31A642B01D90323ECE1534B9F
:101E70001B6803F40033002BF0D100E000BF7B6847
:101E80001B6803F00203002B63D04C4B5B6803F02C
:101E90000C03002B0BD0494B5B6803F00C03082BA1
:101EA0001CD1464B5B6803F48033002B16D1434BA7
:101EB0001B6803F00203002B05D07B681B69012B14
:101EC00001D00123C0E13D4B1B6823F0F8027B6881
:101ED0005B69DB00394913430B603AE07B681B699F
:101EE000002B20D0364B01221A60FFF713FB38611C
:101EF00008E0FFF70FFB02463B69D31A022B01D91A
:101F00000323A1E12D4B1B6803F00203002BF0D04B
:101F10002A4B1B6823F0F8027B685B69DB002749CA
:101F200013430B6015E0264B00221A60FFF7F2FA0C
:101F3000386108E0FFF7EEFA02463B69D31A022B3C
:101F400001D9032380E11D4B1B6803F00203002B22
:101F5000F0D17B681B6803F00803002B3AD07B6844
:101F60009B69002B19D0174B01221A60FFF7D2FA98
:101F7000386108E0FFF7CEFA02463B69D31A022B1C
:101F800001D9032360E10D4B5B6A03F00203002BD0
:101F9000F0D0012000F008FB1CE00A4B00221A6080
:101FA000FFF7B8FA38610FE0FFF7B4FA02463B6971
:101FB000D31A022B08D9032346E100BF00100240C8
:101FC0000000424280044242924B5B6A03F00203EB
:101FD000002BE9D17B681B6803F00403002B00F0A1
:101FE000A6800023FB758B4BDB6903F08053002B2D
:101FF0000DD1884BDB69874A43F08053D361854B11
:10200000DB6903F08053BB60BB680123FB75824B27
:102010001B6803F48073002B18D17F4B1B687E4A2A
:1020200043F480731360FFF775FA386108E0FFF737
:1020300071FA02463B69D31A642B01D9032303E1E9
:10204000754B1B6803F48073002BF0D07B68DB6852
:10205000012B06D16F4B1B6A6E4A43F001031362DA
:102060002DE07B68DB68002B0CD16A4B1B6A694A48
:1020700023F001031362674B1B6A664A23F00403D3
:1020800013621CE07B68DB68052B0CD1614B1B6A7B
:10209000604A43F0040313625E4B1B6A5D4A43F0DF
:1020A000010313620BE05B4B1B6A5A4A23F00103E6
:1020B0001362584B1B6A574A23F0040313627B6870
:1020C000DB68002B15D0FFF725FA38610AE0FFF72F
:1020D00021FA02463B69D31A41F28832934201D970
:1020E0000323B1E04B4B1B6A03F00203002BEED03D
:1020F00014E0FFF70FFA38610AE0FFF70BFA024627
:102100003B69D31A41F28832934201D903239BE001
:10211000404B1B6A03F00203002BEED1FB7D012B29
:1021200005D13C4BDB693B4A23F08053D3617B688C
:10213000DB69002B00F08780364B5B6803F00C03F3
:10214000082B61D07B68DB69022B46D1334B002220
:102150001A60FFF7DFF9386108E0FFF7DBF90246A4
:102160003B69D31A022B01D903236DE0294B1B686D
:1021700003F00073002BF0D17B681B6AB3F5803F3E
:1021800008D1244B5B6823F400327B689B682149AB
:1021900013434B601F4B5B6823F474127B68196A0E
:1021A0007B685B6A0B431B4913434B601B4B01224B
:1021B0001A60FFF7AFF9386108E0FFF7ABF90246A4
:1021C0003B69D31A022B01D903233DE0114B1B6855
:1021D00003F00073002BF0D035E0104B00221A60A2
:1021E000FFF798F9386108E0FFF794F902463B6978
:1021F000D31A022B01D9032326E0064B1B6803F0F8
:102200000073002BF0D11EE07B68DB69012B07D146
:10221000012319E0001002400070004060004242BB
:102220000B4B5B68FB60FB6803F480327B681B6AC6
:102230009A4206D1FB6803F470127B685B6A9A428B
:1022400001D0012300E0002318461837BD4680BDA9
:102250000010024080B584B000AF786039607B68C0
:10226000002B01D10123D0E06A4B1B6803F0070368
:102270003A689A4210D9674B1B6823F007026549F8
:102280003B6813430B60634B1B6803F007033A681A
:102290009A4201D00123B8E07B681B6803F0020377
:1022A000002B20D07B681B6803F00403002B05D0B3
:1022B000594B5B68584A43F4E06353607B681B6882
:1022C00003F00803002B05D0534B5B68524A43F4DC
:1022D00060535360504B5B6823F0F0027B689B684F
:1022E0004D4913434B607B681B6803F00103002BCF
:1022F00040D07B685B68012B07D1474B1B6803F418
:102300000033002B15D101237FE07B685B68022B33
:1023100007D1414B1B6803F00073002B09D1012347
:1023200073E03D4B1B6803F00203002B01D1012336
:102330006BE0394B5B6823F003027B685B683649CE
:1023400013434B60FFF7E6F8F8600AE0FFF7E2F8A6
:102350000246FB68D31A41F28832934201D9032323
:1023600053E02D4B5B6803F00C027B685B689B00BD
:102370009A42EBD1274B1B6803F007033A689A4255
:1023800010D2244B1B6823F0070222493B681343F9
:102390000B60204B1B6803F007033A689A4201D098
:1023A000012332E07B681B6803F00403002B08D094
:1023B000194B5B6823F4E0627B68DB6816491343C2
:1023C0004B607B681B6803F00803002B09D0124B9D
:1023D0005B6823F460527B681B69DB000E49134382
:1023E0004B6000F021F802460B4B5B681B0903F0C1
:1023F0000F030A49CB5C22FA03F3094A1360094B25
:102400001B68184606F0F0FD002318461037BD463D
:1024100080BD00BF0020024000100240A8D6000886
:10242000040500200000002090B48AB000AF294BC2
:102430003C1D0FCB84E80F0040F201233B800023BA
:10244000FB610023BB6100237B6200237B610023CF
:102450003B62214B5B68FB61FB6903F00C03042BBF
:1024600002D0082B03D02BE01C4B3B622BE0FB6916
:102470009B0C03F00F0328333B4413F8243C7B618F
:10248000FB6903F48033002B12D0134B5B685B0CA9
:1024900003F0010328333B4413F8283CBB617B69FC
:1024A0000E4A03FB02F2BB69B2FBF3F37B6204E06A
:1024B0007B690B4A02FB03F37B627B6A3B6202E0AF
:1024C000064B3B6200BF3B6A18462837BD4690BCAE
:1024D000704700BFE8C200080010024000127A00F6
:1024E00000093D0080B400AF024B1B681846BD4692
:1024F00080BC70470405002080B500AFFFF7F2FFF5
:102500000246054B5B681B0A03F007030349CB5CDB
:1025100022FA03F3184680BD00100240B8D6000826
:1025200080B500AFFFF7DEFF0246054B5B68DB0AB4
:1025300003F007030349CB5C22FA03F3184680BD7E
:1025400000100240B8D6000880B483B000AF7860B5
:1025500039607B680F221A60114B5B6803F003023D
:102560007B685A600E4B5B6803F0F0027B689A60F0
:102570000B4B5B6803F4E0627B68DA60084B5B68D6
:10258000DB0803F4E0627B681A61064B1B6803F00A
:1025900007023B681A6000BF0C37BD4680BC70471D
:1025A000001002400020024080B485B000AF786087
:1025B0000A4B1B680A4AA2FB03235B0A7A6802FBE8
:1025C00003F3FB6000BFFB685A1EFA60002BF9D1D1
:1025D00000BF00BF1437BD4680BC70470405002013
:1025E000D34D621080B582B000AF78607B68002B5D
:1025F00001D1012341E07B6893F83D30DBB2002B31
:1026000006D17B68002283F83C20786800F039F816
:102610007B68022283F83D207B681A687B6804335C
:102620001946104600F0B4F97B68012283F8462071
:102630007B68012283F83E207B68012283F83F20DB
:102640007B68012283F840207B68012283F84120C7
:102650007B68012283F842207B68012283F84320B3
:102660007B68012283F844207B68012283F845209F
:102670007B68012283F83D20002318460837BD46B9
:1026800080BD80B483B000AF786000BF0C37BD461A
:1026900080BC704780B485B000AF78607B6893F8E9
:1026A0003D30DBB2012B01D001233AE07B680222EE
:1026B00083F83D207B681B68DA687B681B6842F002
:1026C0000102DA607B681B68184A93420ED07B686F
:1026D0001B68B3F1804F09D07B681B68144A934292
:1026E00004D07B681B68134A934211D17B681B6836
:1026F0009B6803F00703FB60FB68062B10D07B6828
:102700001B681A687B681B6842F001021A6007E0C8
:102710007B681B681A687B681B6842F001021A60BC
:10272000002318461437BD4680BC7047002C01407A
:10273000000400400008004080B582B000AF78601F
:102740007B681B681B6903F00203022B22D17B68A4
:102750001B68DB6803F00203022B1BD17B681B683C
:102760006FF002021A617B6801221A777B681B688E
:102770009B6903F00303002B03D0786800F0EDF8A9
:1027800005E0786800F0E0F8786800F0EFF87B6822
:1027900000221A777B681B681B6903F00403042B73
:1027A00022D17B681B68DB6803F00403042B1BD178
:1027B0007B681B686FF004021A617B6802221A773B
:1027C0007B681B689B6903F44073002B03D0786817
:1027D00000F0C3F805E0786800F0B6F8786800F01B
:1027E000C5F87B6800221A777B681B681B6903F0B9
:1027F0000803082B22D17B681B68DB6803F0080301
:10280000082B1BD17B681B686FF008021A617B687C
:1028100004221A777B681B68DB6903F00303002B33
:1028200003D0786800F099F805E0786800F08CF83B
:10283000786800F09BF87B6800221A777B681B6839
:102840001B6903F01003102B22D17B681B68DB6827
:1028500003F01003102B1BD17B681B686FF0100274
:102860001A617B6808221A777B681B68DB6903F4AE
:102870004073002B03D0786800F06FF805E07868AB
:1028800000F062F8786800F071F87B6800221A772F
:102890007B681B681B6903F00103012B0ED17B6869
:1028A0001B68DB6803F00103012B07D17B681B6801
:1028B0006FF001021A61786805F032FE7B681B68D0
:1028C0001B6903F08003802B0ED17B681B68DB68DB
:1028D00003F08003802B07D17B681B686FF08002B8
:1028E0001A61786800F0BFF87B681B681B6903F009
:1028F0004003402B0ED17B681B68DB6803F040036C
:10290000402B07D17B681B686FF040021A61786822
:1029100000F035F87B681B681B6903F02003202B4F
:102920000ED17B681B68DB6803F02003202B07D1E6
:102930007B681B686FF020021A61786800F08AF8E3
:1029400000BF0837BD4680BD80B483B000AF78605B
:1029500000BF0C37BD4680BC704780B483B000AF69
:10296000786000BF0C37BD4680BC704780B483B030
:1029700000AF786000BF0C37BD4680BC704780B4A4
:1029800083B000AF786000BF0C37BD4680BC704795
:1029900080B485B000AF786039607B681B68FB60ED
:1029A0007B68294A93420BD07B68B3F1804F07D0F4
:1029B0007B68264A934203D07B68254A934208D11C
:1029C000FB6823F07003FB603B685B68FA681343A5
:1029D000FB607B681C4A93420BD07B68B3F1804F4D
:1029E00007D07B68194A934203D07B68184A934208
:1029F00008D1FB6823F44073FB603B68DB68FA682E
:102A00001343FB60FB6823F080023B685B69134360
:102A1000FB607B68FA681A603B689A687B68DA62D8
:102A20003B681A687B689A627B68074A934203D1C5
:102A30003B681A697B681A637B6801225A6100BF90
:102A40001437BD4680BC7047002C01400004004094
:102A50000008004080B483B000AF786000BF0C373E
:102A6000BD4680BC704780B483B000AF786000BFC3
:102A70000C37BD4680BC704780B582B000AF78602F
:102A80007B68002B01D101233FE07B6893F839304C
:102A9000DBB2002B06D17B68002283F838207868EF
:102AA00006F0E0FB7B68242283F839207B681B68F2
:102AB000DA687B681B6822F40052DA60786800F0FC
:102AC00029F87B681B681A697B681B6822F49042AE
:102AD0001A617B681B685A697B681B6822F02A02AE
:102AE0005A617B681B68DA687B681B6842F4005295
:102AF000DA607B680022DA637B68202283F8392061
:102B00007B68202283F83A20002318460837BD4608
:102B100080BD000080B584B000AF78607B681B6822
:102B20001B6923F440517B68DA687B681B680A43A1
:102B30001A617B689A687B681B691A437B685B69CA
:102B40001343BB607B681B68DB6823F4B05323F03E
:102B50000C037A681268B9680B43D3607B681B6802
:102B60005B6923F440717B689A697B681B680A4340
:102B70005A617B681B682C4A934203D1FFF7D0FC53
:102B8000F86002E0FFF7B8FCF860FA6813469B00B3
:102B900013449A001A447B685B689B00B2FBF3F312
:102BA000224AA2FB03235B091901FA6813469B0022
:102BB00013449A001A447B685B689B00B2FBF3F2F3
:102BC0001A4BA3FB02035B09642000FB03F3D31A37
:102BD0001B013233154AA2FB03235B0903F0F00308
:102BE0001944FA6813469B0013449A001A447B6800
:102BF0005B689B00B2FBF3F20C4BA3FB02035B0987
:102C0000642000FB03F3D31A1B013233074AA2FBF3
:102C100003235B0903F00F027B681B680A449A6078
:102C200000BF1037BD4680BD003801401F85EB5105
:102C300080B485B000AF0346FB800023FB60B7F98A
:102C40000630842B05D0B7F90620FB681344033304
:102C5000FB60FB6818461437BD4680BC704780B5E2
:102C600000AF00F05BFE0023184680BDF0B589B0D0
:102C700004AF786039607B685B69002B20D07B688B
:102C80009B69002B1CD07B685C687B681D687B6837
:102C90001E697B68B3F908301846FFF7C9FF014683
:102CA0007B685B697A6892690292019300913B6844
:102CB00032462946204600F073FC0346FB601CE0C8
:102CC0007B685C687B681D687B681B699EB27B685B
:102CD000B3F908301846FFF7ABFF024607F10C03C3
:102CE000019300923B6832462946204600F0B4FC2E
:102CF0000346012B01D0002300E0FB68184614377F
:102D0000BD46F0BD80B584B000AF78607B68FB60E5
:102D1000FB68002B01D0FB6800E00123184600F09F
:102D2000C9FD002318461037BD4680BD80B483B06E
:102D300000AF78607B6803F108027B685A607B68AB
:102D40004FF0FF329A607B6803F108027B68DA601B
:102D50007B6803F108027B681A617B6800221A60B5
:102D600000BF0C37BD4680BC704780B483B000AF55
:102D700078607B6800221A6100BF0C37BD4680BCBA
:102D8000704780B485B000AF786039607B685B685D
:102D9000FB603B68FA685A60FB689A683B689A6017
:102DA000FB689B683A685A60FB683A689A603B68BF
:102DB0007A681A617B681B685A1C7B681A6000BFBE
:102DC0001437BD4680BC704780B485B000AF7860D2
:102DD00039603B681B68BB60BB68B3F1FF3F03D140
:102DE0007B681B69FB600CE07B680833FB6002E0DA
:102DF000FB685B68FB60FB685B681B68BA689A42AB
:102E0000F6D2FB685A683B685A603B685B683A6870
:102E10009A603B68FA689A60FB683A685A603B6857
:102E20007A681A617B681B685A1C7B681A6000BF4D
:102E30001437BD4680BC704780B485B000AF786061
:102E40007B681B69FB607B685B687A6892689A6044
:102E50007B689B687A6852685A60FB685B687A682E
:102E60009A4203D17B689A68FB685A607B680022AB
:102E70001A61FB681B685A1EFB681A60FB681B68B6
:102E800018461437BD4680BC7047000080B485B03A
:102E900000AFF860B9607A60FB68043BFB60FB68D8
:102EA0004FF080721A60FB68043BFB60BB6823F044
:102EB0000102FB681A60FB68043BFB60084AFB6880
:102EC0001A60FB68143BFB607A68FB681A60FB6859
:102ED000203BFB60FB6818461437BD4680BC70473A
:102EE000E52E000880B485B000AF00237B60124B54
:102EF0001B68B3F1FF3F0AD04FF0500383F31188F2
:102F0000BFF36F8FBFF34F8FFB6000BFFEE74FF043
:102F1000500383F31188BFF36F8FBFF34F8FBB60F4
:102F200000BF00BF7B68002BFCD000BF00BF143780
:102F3000BD4680BC704700BF0800002000000000B4
:102F4000074B19680868B0E8F00F80F30988BFF3F1
:102F50006F8F4FF0000080F311884EF00D0E704718
:102F6000AC11002000BF00BF06480068006880F375
:102F7000088862B661B6BFF34F8FBFF36F8F00DF73
:102F800000BF00BF08ED00E080B584B000AF324B59
:102F9000FB60FB681B78DBB27B60FB68FF221A706A
:102FA000FB681B78DBB2FB70FB78DBB203F05003ED
:102FB000DAB22A4B1A702A4B07221A6009E0284B12
:102FC0001B68013B264A1360FB78DBB25B00DBB277
:102FD000FB70FB78DBB203F08003802BEFD0204B3B
:102FE0001B68C3F10703042B0AD04FF0500383F38F
:102FF0001188BFF36F8FBFF34F8FBB6000BFFEE739
:10300000174B1B681B02164A1360154B1B6803F411
:10301000E063134A13607B68DAB2FB681A70114BE5
:103020001B68104A43F4700313600E4B1B680D4A73
:1030300043F07043136000F0B9F80B4B00221A60A4
:10304000FFF792FF00F032FEFFF74CFF0023184617
:103050001037BD4680BD00BF00E400E08C050020B5
:103060009005002020ED00E00800002080B483B02F
:1030700000AF4FF0500383F31188BFF36F8FBFF39E
:103080004F8F7B6000BF0F4B1B6801330D4A1360ED
:103090000C4B1B68012B0FD10B4B1B68DBB2002BB9
:1030A0000AD04FF0500383F31188BFF36F8FBFF343
:1030B0004F8F3B6000BFFEE700BF0C37BD4680BCB2
:1030C000704700BF0800002004ED00E080B483B02A
:1030D00000AF114B1B68002B0AD14FF0500383F354
:1030E0001188BFF36F8FBFF34F8F7B6000BFFEE788
:1030F000094B1B68013B084A1360074B1B68002BF8
:1031000005D100233B603B6883F3118800BF00BFFB
:103110000C37BD4680BC704708000020000000004E
:10312000EFF30980BFF36F8F0D4B1A6820E9F00FA2
:1031300010602DE908404FF0500080F3118800F036
:10314000B5FD4FF0000080F31188BDE80840196814
:103150000868B0E8F00F80F30988BFF36F8F7047FD
:10316000AC11002000BF00BF80B582B000AF4FF0AF
:10317000500383F31188BFF36F8FBFF34F8F7B60D2
:1031800000BF00F0D5FC0346002B03D0064B4FF0E8
:1031900080521A6000233B603B6883F3118800BFB4
:1031A00000BF0837BD4680BD04ED00E080B400AF2D
:1031B0000A4B00221A600A4B00221A60094B1B6856
:1031C000094AA2FB03239B09084A013B1360034BF6
:1031D00007221A6000BFBD4680BC704710E000E0C7
:1031E00018E000E004050020D34D621014E000E078
:1031F00080B58AB000AF78600023FB6100F0EEFB81
:10320000584B1B68002B01D100F010F9564B1A687F
:103210007B681340002B40F08E807B68002B1DD014
:1032200008227B6813447B607B6803F00703002B54
:1032300014D07B6823F0070308337B607B6803F0BE
:103240000703002B0AD04FF0500383F31188BFF31C
:103250006F8FBFF34F8F7B6100BFFEE77B68002B52
:1032600069D0424B1B687A689A4264D8404B3B62F3
:103270003F4B1B687B6204E07B6A3B627B6A1B6896
:103280007B627B6A5B687A689A4203D97B6A1B68B7
:10329000002BF1D1334B1B687A6A9A424BD03B6AC0
:1032A0001B6808221344FB617B6A1A683B6A1A6038
:1032B0007B6A5A687B68D21A08235B009A421FD93E
:1032C0007A6A7B681344BB61BB6903F00703002B78
:1032D0000AD04FF0500383F31188BFF36F8FBFF311
:1032E0004F8F3B6100BFFEE77B6A5A687B68D21A4A
:1032F000BB695A607B6A7A685A60B86900F0F8F86E
:103300001A4B1A687B6A5B68D31A184A1360174B0A
:103310001A68184B1B689A4203D2144B1B68154A53
:1033200013607B6A5A68104B1B681A437B6A5A60A9
:103330007B6A00221A6000F05FFBFB6903F0070361
:10334000002B0AD04FF0500383F31188BFF36F8F27
:10335000BFF34F8FFB6000BFFEE7FB6918462837BD
:10336000BD4680BD9C110020A8110020A0110020A6
:1033700094110020A411002080B586B000AF7860C1
:103380007B687B617B68002B48D008235B427A69AD
:1033900013447B617B693B613B695A68214B1B6825
:1033A0001340002B0AD14FF0500383F31188BFF371
:1033B0006F8FBFF34F8FFB6000BFFEE73B691B6859
:1033C000002B0AD04FF0500383F31188BFF36F8FA7
:1033D000BFF34F8FBB6000BFFEE73B695A68114BDC
:1033E0001B681340002B19D03B691B68002B15D1BB
:1033F0003B695A680B4B1B68DB431A403B695A60B8
:1034000000F0ECFA3B695A68074B1B681344064A04
:103410001360386900F06CF800F0EEFA00BF18375E
:10342000BD4680BDA8110020A011002080B485B049
:1034300000AF4FF44063BB60274BFB60FB6803F0B9
:103440000703002B0CD0FB680733FB60FB6823F0FD
:103450000703FB60BA68FB68D31A1F4A1344BB60BA
:10346000FB687B601D4A7B6813601C4B00225A601E
:103470007B68BA681344FB600822FB689B1AFB60F8
:10348000FB6823F00703FB60FB68154A1360144BCD
:103490001B6800225A60124B1B6800221A607B686E
:1034A0003B603B68FA68D21A3B685A600C4B1A685A
:1034B0003B681A603B685B680A4A13603B685B685C
:1034C000094A1360094B4FF000421A6000BF1437DD
:1034D000BD4680BC704700BF9405002094110020B9
:1034E0009C110020A4110020A0110020A811002090
:1034F00080B485B000AF7860274BFB6002E0FB68CA
:103500001B68FB60FB681B687A689A42F7D8FB6807
:10351000BB60FB685B68BA6813447A689A4208D15A
:10352000FB685A687B685B681A44FB685A60FB68F2
:103530007B607B68BB607B685B68BA681A44FB6829
:103540001B689A4218D1FB681A68144B1B689A4290
:103550000DD07B685A68FB681B685B681A447B68FF
:103560005A60FB681B681A687B681A6008E00B4B9E
:103570001A687B681A6003E0FB681A687B681A6047
:10358000FA687B689A4202D0FB687A681A6000BFCA
:103590001437BD4680BC7047941100209C11002058
:1035A00080B58EB004AFF860B9607A603B607B6B29
:1035B000002B0AD14FF0500383F31188BFF36F8FB4
:1035C000BFF34F8F3B6200BFFEE7BB6B002B0AD1FE
:1035D0004FF0500383F31188BFF36F8FBFF34F8F0A
:1035E000FB6100BFFEE754233B613B69542B0AD0CB
:1035F0004FF0500383F31188BFF36F8FBFF34F8FEA
:10360000BB6100BFFEE7BB6B002B1ED07B6B002BAA
:103610001BD0BB6B7B627B6A7A6B1A637B6A02226C
:1036200083F85120002303937B6A029307F114036C
:1036300001933B6B00933B687A68B968F86800F0C7
:1036400050F8786A00F0CCF801E000237B617B69D8
:1036500018462837BD4680BD80B58CB004AFF860F1
:10366000B9603B601346FB80FB889B001846FFF760
:10367000BFFD78617B69002B0ED05420FFF7B8FDA9
:10368000F861FB69002B03D0FB697A691A6305E0D6
:103690007869FFF771FE01E00023FB61FB69002BF5
:1036A00017D0FB69002283F85120FA880023039386
:1036B000FB690293FB6A0193BB6A00933B68B9689C
:1036C000F86800F00EF8F86900F08AF80123BB6191
:1036D00002E04FF0FF33BB61BB6918462037BD469F
:1036E00080BD80B588B000AFF860B9607A603B609B
:1036F0003B6B1A6B7B6803F18043013B9B001344D7
:10370000BB61BB6923F00703BB61BB6903F007031F
:10371000002B0AD04FF0500383F31188BFF36F8F53
:10372000BFF34F8F7B6100BFFEE70023FB6112E018
:10373000BA68FB69134419783A6BFB691344343354
:103740000A461A70BA68FB6913441B78002B06D02E
:10375000FB690133FB61FB690F2BE9D900E000BF76
:103760003B6B002283F84320BB6A062B01D906235A
:10377000BB623B6BBA6ADA623B6BBA6A5A643B6BF8
:1037800000229A643B6B04331846FFF7EEFA3B6B5A
:1037900018331846FFF7E9FA3B6B3A6B1A61BB6ABC
:1037A000C3F107023B6B9A613B6B3A6B5A623B6B0E
:1037B0000022DA643B6B002283F850203A68F968F3
:1037C000B869FFF763FB02463B6B1A60FB6A002B8C
:1037D00002D0FB6A3A6B1A6000BF2037BD4680BD3D
:1037E00080B582B000AF7860FFF740FC2A4B1B68C1
:1037F0000133294A1360294B1B68002B09D1274A42
:103800007B681360244B1B68012B10D100F0C0FAB9
:103810000DE0234B1B68002B09D1204B1B68DA6A93
:103820007B68DB6A9A4202D81C4A7B6813601D4B96
:103830001B6801331B4A13607B68DB6A01229A40D4
:10384000194B1B681343184A13607B68DA6A1346E6
:103850009B0013449B00154A1A447B6804331946A5
:103860001046FFF78EFAFFF731FC0D4B1B68002B5B
:103870000ED00A4B1B68DA6A7B68DB6A9A4207D271
:103880000B4B4FF080521A60BFF34F8FBFF36F8F17
:1038900000BF0837BD4680BDAC120020AC1100202F
:1038A000B8120020C8120020B4120020B01100206D
:1038B00004ED00E080B584B000AF78600023FB60C9
:1038C0007B68002B17D0134B1B68002B0AD04FF0DE
:1038D000500383F31188BFF36F8FBFF34F8FBB602B
:1038E00000BFFEE700F07AF80021786800F012FBD4
:1038F00000F082F8F860FB68002B07D1064B4FF010
:1039000080521A60BFF34F8FBFF36F8F00BF103725
:10391000BD4680BDD412002004ED00E080B58AB021
:1039200004AF0023BB6000237B603A46391D07F1DA
:103930000803184600F054FB39687B68BA680292A5
:1039400001930023009300230A461E491E48FFF7F7
:1039500027FE03461D4A13601C4B1B68002B02D038
:1039600001237B6101E000237B617B69012B16D180
:103970004FF0500383F31188BFF36F8FBFF34F8F66
:103980003B6100BF124B4FF0FF321A60114B012216
:103990001A60114B00221A60FFF7F6FA0EE07B69FD
:1039A000B3F1FF3F0AD14FF0500383F31188BFF307
:1039B0006F8FBFF34F8FFB6000BFFEE700BF18376C
:1039C000BD4680BDF8C20008613D0008D01200204D
:1039D000CC120020B8120020B012002080B400AF3A
:1039E000044B1B680133034A136000BFBD4680BC13
:1039F000704700BFD412002080B584B000AF002310
:103A0000FB600023BB60414B1B68002B0AD14FF0C9
:103A1000500383F31188BFF36F8FBFF34F8F3B6069
:103A200000BFFEE7FFF722FB384B1B68013B374A1C
:103A30001360364B1B68002B61D1354B1B68002B84
:103A40005DD02EE0334BDB68DB68FB60FB6818332E
:103A50001846FFF7F1F9FB6804331846FFF7ECF955
:103A6000FB68DB6A01229A402B4B1B6813432A4AEE
:103A70001360FB68DA6A13469B0013449B00274AD5
:103A80001A44FB68043319461046FFF77AF9FB68BD
:103A9000DA6A234B1B68DB6A9A4202D3214B01226C
:103AA0001A601C4B1B68002BCCD1FB68002B01D08B
:103AB00000F00CFA1C4B1B687B607B68002B10D05D
:103AC00000F036F80346002B02D0164B01221A6094
:103AD0007B68013B7B607B68002BF1D1124B00229D
:103AE0001A60104B1B68002B09D00123BB600F4BE1
:103AF0004FF080521A60BFF34F8FBFF36F8FFFF705
:103B0000E5FABB6818461037BD4680BDD4120020C8
:103B1000AC1200206C120020B4120020B011002062
:103B2000AC110020C0120020BC12002004ED00E007
:103B300080B586B000AF00237B61514B1B68002B22
:103B400040F08D804F4B1B6801333B614D4A3B6910
:103B500013603B69002B20D14B4B1B681B68002B6B
:103B60000AD04FF0500383F31188BFF36F8FBFF378
:103B70004F8F3B6000BFFEE7434B1B68FB60434B2E
:103B80001B68414A1360414AFB681360404B1B6845
:103B900001333F4A136000F099F93E4B1B683A69C4
:103BA0009A424DD3384B1B681B68002B01D101236F
:103BB00000E00023002B04D0364B4FF0FF321A6098
:103BC0003EE0314B1B68DB68DB68BB60BB685B6851
:103BD0007B603A697B689A4203D22E4A7B68136005
:103BE0002EE0BB6804331846FFF726F9BB689B6AD2
:103BF000002B04D0BB6818331846FFF71DF9BB68CB
:103C0000DB6A01229A40244B1B681343224A13604B
:103C1000BB68DA6A13469B0013449B001F4A1A4490
:103C2000BB68043319461046FFF7ABF8BB68DA6A85
:103C30001B4B1B68DB6A9A42B4D301237B61B1E75B
:103C4000174B1B68DA6A154913469B0013449B0007
:103C50000B441B68012B07D901237B6104E0114B46
:103C60001B6801330F4A13600F4B1B68002B01D0F8
:103C700001237B617B6918461837BD4680BD00BFB4
:103C8000D4120020B012002064120020681200201C
:103C9000C4120020CC120020B4120020B011002069
:103CA000AC110020BC120020C012002080B487B0EC
:103CB00000AF264B1B68002B03D0254B01221A6056
:103CC0003FE0234B00221A60224B1B68FB60FB681D
:103CD000B3FA83F3FB72FB7AC3F11F037B611E49C6
:103CE0007A6913469B0013449B000B441B68002B0E
:103CF0000AD14FF0500383F31188BFF36F8FBFF3E6
:103D00004F8F7B6000BFFEE77A6913469B00134428
:103D10009B00114A13443B613B695B685A683B69ED
:103D20005A603B695A683B6908339A4204D13B693F
:103D30005B685A683B695A603B695B68DB68074AA5
:103D4000136000BF1C37BD4680BC7047D4120020F2
:103D5000C0120020B4120020B0110020AC110020CD
:103D600080B582B000AF786000F052F8064B1B6857
:103D7000012BF9D9054B4FF080521A60BFF34F8FDA
:103D8000BFF36F8FF0E700BFB011002004ED00E03B
:103D900080B582B000AF00237B600CE07A681346E8
:103DA0009B0013449B00124A13441846FEF7BEFFC3
:103DB0007B6801337B607B68062BEFD90D48FEF7EB
:103DC000B5FF0D48FEF7B2FF0C48FEF7AFFF0C48F9
:103DD000FEF7ACFF0B48FEF7A9FF0B4B054A1A6034
:103DE0000A4B054A1A6000BF0837BD4680BD00BFB8
:103DF000B01100203C120020501200206C12002054
:103E00008012002098120020641200206812002006
:103E100080B582B000AF19E0FFF728F9104BDB68DE
:103E2000DB687B607B6804331846FFF705F80D4BB1
:103E30001B68013B0B4A13600B4B1B68013B0A4A92
:103E40001360FFF743F9786800F010F8064B1B6821
:103E5000002BE1D100BF00BF0837BD4680BD00BFC9
:103E600080120020AC1200209412002080B584B093
:103E700000AF78607B6893F85130002B08D17B68E5
:103E80001B6B1846FFF778FA7868FFF775FA18E0A9
:103E90007B6893F85130012B03D17868FFF76CFAF7
:103EA0000FE07B6893F85130022B0AD04FF050039B
:103EB00083F31188BFF36F8FBFF34F8FFB6000BF99
:103EC000FEE700BF1037BD4680BD000080B483B060
:103ED00000AF0E4B1B681B68002B01D1012300E0D3
:103EE0000023002B04D00A4B4FF0FF321A6008E089
:103EF000064B1B68DB68DB687B607B685B68044A99
:103F0000136000BF0C37BD4680BC704764120020B0
:103F1000CC12002080B584B000AF78603960294BA6
:103F20001B68FB60284B1B6804331846FEF784FFB0
:103F30000346002B0BD1244B1B68DB6A012202FADB
:103F400003F3DA43214B1B681340204A13607B685C
:103F5000B3F1FF3F0AD13B68002B07D01A4B1B6817
:103F6000043319461A48FEF70CFF26E0FA687B680E
:103F70001344BB60144B1B68BA685A60BA68FB688C
:103F80009A4209D2134B1A680F4B1B680433194627
:103F90001046FEF719FF10E00F4B1A680A4B1B681A
:103FA000043319461046FEF70FFF0C4B1B68BA6826
:103FB0009A4202D2094ABB68136000BF1037BD465F
:103FC00080BD00BFB0120020AC110020B412002050
:103FD000981200206812002064120020CC120020E9
:103FE00080B485B000AFF860B9607A60FB68064ABB
:103FF0001A60BB68054A1A607B6880221A6000BF9D
:104000001437BD4680BC7047E412002038130020EE
:10401000B0B596B000AF1D4B07F13C041D460FCD67
:104020000FC495E8070084E8070007F13C0300216E
:104030001846FEF71BFE0346154A1360154B07F1A1
:1040400020041D460FCD0FC495E8070084E8070043
:1040500007F1200300211846FEF708FE03460E4A2A
:1040600013600E4B3C1D1D460FCD0FC495E8070095
:1040700084E807003B1D00211846FEF7F7FD0346C4
:10408000074A136000BF5837BD46B0BD1CC30008C7
:10409000D812002038C30008DC12002054C30008E6
:1040A000E012002090B587B000AF7860396000233F
:1040B0007B6147E07A6913465B0013449B001A4614
:1040C0003B6813441A687B681B6819461046FCF766
:1040D0006BFD03461C467A6913465B0013449B0044
:1040E0001A463B6813445A687B6804331B681946B8
:1040F0001046FCF759FD034619462046FCF74CFCD8
:1041000003461C467A6913465B0013449B001A461B
:104110003B6813449A687B6808331B68194610464D
:10412000FCF742FD034619462046FCF735FC0346E2
:104130001A467B699B0018333B4443F8102C7B697B
:1041400001337B617B69022BB4DD00237B610DE0D1
:104150007B699B007A681A447B699B0018333B4457
:1041600053F8103C13607B6901337B617B69022B40
:10417000EEDD7B6818461C37BD4690BD0000000090
:1041800080B5A0B000AFF860B9607A603B60B868F5
:10419000FCF742F9A2A3D3E90023FCF7BFFA0246D9
:1041A0000B4610461946FCF7A1FB0346BB60786836
:1041B000FCF732F99AA3D3E90023FCF7AFFA0246E1
:1041C0000B4610461946FCF791FB03467B603868A6
:1041D000FCF722F992A3D3E90023FCF79FFA0246E9
:1041E0000B4610461946FCF781FB03463B603868D6
:1041F000FCF712F902460B461046194606F07EFA05
:1042000002460B4610461946FCF770FB0346FB6559
:104210003868FCF701F902460B461046194606F0CD
:10422000C3FA02460B4610461946FCF75FFB0346ED
:1042300083F000433B664FF000037B663868FCF771
:10424000EBF802460B461046194606F0ADFA024658
:104250000B4610461946FCF749FB0346BB66386817
:10426000FCF7DAF802460B461046194606F046FA05
:1042700002460B4610461946FCF738FB0346FB6620
:104280004FF000033B674FF000037B674FF00003E4
:10429000BB674FF07E53FB674FF07E53BB634FF01D
:1042A0000003FB634FF000033B644FF000037B64AB
:1042B0007868FCF7B1F802460B461046194606F03E
:1042C0001DFA02460B4610461946FCF70FFB034643
:1042D000BB647868FCF7A0F802460B461046194606
:1042E00006F062FA02460B4610461946FCF7FEFA43
:1042F000034683F00043FB644FF000033B6578689E
:10430000FCF78AF802460B461046194606F04CFAAE
:1043100002460B4610461946FCF7E8FA03467B6551
:104320007868FCF779F802460B461046194606F005
:10433000E5F902460B4610461946FCF7D7FA034644
:10434000BB65B868FCF768F802460B46104619468C
:1043500006F0D4F902460B4610461946FCF7C6FA99
:1043600003467B614FF00003BB61B868FCF754F86B
:1043700002460B461046194606F016FA02460B4650
:1043800010461946FCF7B2FA0346FB614FF00003F2
:104390003B624FF07E537B624FF00003BB62B86814
:1043A000FCF73AF802460B461046194606F0FCF9AF
:1043B00002460B4610461946FCF798FA034683F06E
:1043C0000043FB624FF000033B63B868FCF724F83E
:1043D00002460B461046194606F090F902460B4677
:1043E00010461946FCF782FA03467B6307F15C032B
:1043F0001946F868FFF756FE024607F138031946DA
:104400001046FFF74FFE024607F114031946104607
:10441000FFF748FE00BF8037BD4680BDAFF3008088
:1044200054E3A59BC4200940F0B587B002AF786083
:104430000023FB73B24B1B681846FCF7A1FD034633
:10444000DBB2184604F0ECFAAE4B1B681846FCF7DA
:1044500097FD0346DBB2184604F0E2FAAA4B1B684C
:104460001846FCF78DFD0346DBB2184604F0D8FA77
:1044700004F034FA00F0F4F90346002B40F09B807E
:1044800004F02CFA0023FB738EE097F90F409D4B4C
:104490001B681846FCF74EFD03465BB29B4A82FB45
:1044A0000312DB17D31A5BB21946204604F000FB57
:1044B0000A20FEF727FC00F0D3F90346002B61D158
:1044C00004F00CFA0023FB7356E097F90F408C4B75
:1044D0001B681846FCF72EFD03465BB28B4A82FB35
:1044E0000312DB17D31A5BB21946204604F0E0FA38
:1044F0000A20FEF707FC00F0B3F90346002B2CD18D
:1045000004F0ECF90023FB7321E097F90F407E4B98
:104510001B681846FCF70EFD03465BB27B4A82FB24
:104520000312DB17D31A5BB21946204604F0C0FA17
:1045300000F0B2F90346002B0ED0FB7B01335A4248
:1045400003F07F0302F07F0258BF5342FB7397F9D9
:104550000F30002BD9DA00E000BF00F09DF90346D0
:10456000002B0ED0FB7B01335A4203F07F0302F095
:104570007F0258BF5342FB7397F90F30002BA4DA28
:1045800000E000BF00F088F90346002B12D00A209B
:10459000FEF7B8FBFB7B01335A4203F07F0302F0C6
:1045A0007F0258BF5342FB7397F90F30002BBFF6C1
:1045B0006CAF00E000BF04F091F90023BB7325E06D
:1045C000BA7B13465B0013449B00514A9C184C4B2A
:1045D0001B6850491846FCF79BFB03461D46494B98
:1045E0001B684C491846FCF793FB03461E46464B96
:1045F0001B6848491846FCF78BFB034632462946A0
:104600002046FFF7BDFDBB7B0133BB73BB7B072B94
:10461000D6D90023BB7369E0BB7B3F4A52F82330F5
:104620005A1E3B4913465B0013449B000B441B6816
:104630004FF085411846FCF7AFF903461846FCF7E2
:104640009FFC0346DCB2BB7B334A52F823305A1E30
:104650002F4913465B0013449B000B4404331B6833
:104660004FF084411846FCF797F903461846FCF7CB
:1046700087FC0346DDB2BB7B0133274A52F8233067
:104680005A1E234913465B0013449B000B441B68CE
:104690004FF085411846FCF77FF903461846FCF7B2
:1046A0006FFC0346DEB2BB7B01331B4A52F823305A
:1046B0005A1E174913465B0013449B000B440433F6
:1046C0001B684FF084411846FCF766F9034618460C
:1046D000FCF756FC0346DBB2012200923246294623
:1046E000204604F023F8BB7B0233BB73BB7B1B2B40
:1046F00092D903F07DFF0A20FEF704FBBAE600BF63
:10470000381500203C150020401500205655555501
:104710000C0000200000B4436C00002080B582B083
:1047200000AF7860044A0549054802F055FC0220B4
:10473000FEF7E8FAF6E700BF401500203C15002020
:104740003815002080B582B000AF786000F088F89E
:104750000346002B04D14FF480710948FDF79BF903
:104760000A20FEF7CFFA00F097F80346002B03D19A
:1047700020210448FDF78FF90A20FEF7C3FAE5E788
:1047800000080140000C014080B588B000AF07F17F
:10479000100300221A605A609A60DA602D4B9B6900
:1047A0002C4A43F0200393612A4B9B6903F02003BA
:1047B000FB60FB68274B9B69264A43F00403936127
:1047C000244B9B6903F00403BB60BB68214B9B69CE
:1047D000204A43F0080393611E4B9B6903F00803D2
:1047E0007B607B6800224FF480711B48FDF73BF92A
:1047F000002230211948FDF736F903233B610023DD
:104800007B610023BB6107F1100319461248FCF7D6
:104810008FFF4FF480733B6101237B610023BB61F9
:104820000223FB6107F1100319460B48FCF780FFD8
:1048300030233B6101237B610023BB610223FB61C9
:1048400007F1100319460548FCF772FF00BF203737
:10485000BD4680BD0010024000080140000C014030
:1048600080B500AF01210B48FDF7E6F80346002BA9
:104870000CD15020FCF758FE00BF01210548FDF780
:10488000DBF80346002B03D1002301E00123FFE7FF
:10489000184680BD0008014080B500AF02210B48DA
:1048A000FDF7CAF80346002B0CD15020FCF73CFE64
:1048B00000BF02210548FDF7BFF80346002B03D1D6
:1048C000002301E00123FFE7184680BD00080140F6
:1048D00080B500AF124B134A1A60114B124A5A604E
:1048E0000F4B00229A600E4B0022DA600C4B4FF403
:1048F00080421A610A4B00225A61094B00229A61D8
:10490000074B0022DA61064B00221A620448FDF7C9
:10491000DBF80346002B01D003F014FE00BF80BD7E
:104920004415002000540040A086010080B588B0E6
:1049300000AF786007F1100300221A605A609A6095
:10494000DA607B681B68154A934223D1144B9B693C
:10495000134A43F008039361114B9B6903F008036A
:10496000FB60FB68C0233B6112237B610323FB6177
:1049700007F1100319460B48FCF7DAFE084BDB6918
:10498000074A43F40013D361054BDB6903F40013BA
:10499000BB60BB6800BF2037BD4680BD00540040EF
:1049A00000100240000C014080B483B000AF00232F
:1049B000FB7102E0FB790133FB71FB79092BF9D91B
:1049C00000BF00BF0C37BD4680BC704780B500AF4C
:1049D000012280210C48FDF746F8012240210A48B7
:1049E000FDF741F8FFF7E0FF002280210648FDF7C0
:1049F0003AF8FFF7D9FF002240210348FDF733F8CA
:104A0000FFF7D2FF00BF80BD000C014080B500AFB2
:104A1000002280210848FDF726F80122402106489F
:104A2000FDF721F8FFF7C0FF012280210248FDF7C2
:104A30001AF800BF80BD00BF000C014080B584B0F3
:104A400000AF0346FB710023FB732CE097F907309E
:104A5000002B05DA012280211748FDF704F804E055
:104A6000002280211448FCF7FEFFFFF79DFF012282
:104A700040211148FCF7F7FFFFF796FF0022402185
:104A80000D48FCF7F0FFFB7B072B04D101228021AE
:104A90000948FCF7E8FFFB795B00FB71FFF784FF37
:104AA000FB7B0133FB73FB7B072BCFD900BF00BF20
:104AB0001037BD4680BD00BF000C014080B584B0FA
:104AC00000AF0346FB710023BB730023FB731DE0A3
:104AD000BB7B5B00BB73012240211448FCF7C3FF82
:104AE000FFF762FF80211148FCF7A6FF0346002B69
:104AF00002D0BB7B0133BB73002240210B48FCF783
:104B0000B2FFFFF751FFFB7B0133FB73FB7B072BEE
:104B1000DED9FB79002B02D100F056F801E000F05D
:104B200033F8BB7B18461037BD4680BD000C0140F2
:104B300080B582B000AF012280211248FCF793FFBC
:104B4000FFF732FF012240210E48FCF78CFFFFF7F0
:104B50002BFF80210B48FCF76FFF0346002B02D090
:104B60000123FB7101E00023FB7100224021054875
:104B7000FCF779FFFFF718FFFB7918460837BD46A9
:104B800080BD00BF000C014080B500AF0022802135
:104B90000C48FCF768FFFFF707FF01224021094896
:104BA000FCF761FFFFF700FF002240210548FCF7FA
:104BB0005AFFFFF7F9FE012280210248FCF753FF5C
:104BC00000BF80BD000C014080B500AF01228021F4
:104BD0000A48FCF748FFFFF7E7FE0122402107489B
:104BE000FCF741FFFFF7E0FE002240210348FCF7FD
:104BF0003AFFFFF7D9FE00BF80BD00BF000C0140A7
:104C000080B586B000AF0F4B9B690E4A43F0080396
:104C100093610C4B9B6903F008037B607B68C023A6
:104C2000BB6001237B611123FB6007F10803194678
:104C30000548FCF77DFDFFF7E9FE00BF1837BD46CC
:104C400080BD00BF00100240000C014080B582B062
:104C500000AF03460A46FB711346BB71FFF7B6FE71
:104C6000D020FFF7EBFEFFF763FFFB791846FFF755
:104C7000E5FEFFF75DFFBB791846FFF7DFFEFFF7A4
:104C800057FFFFF7C3FE00BF0837BD4680BD80B5A4
:104C900084B000AF3B600346FB710B46BB7113460B
:104CA0007B71FFF793FEFB795B00DBB21846FFF7E1
:104CB000C5FEFFF73DFF0346002B03D0FFF7A6FE1E
:104CC000012322E0BB791846FFF7B8FEFFF730FF5B
:104CD0000023FB7312E0FB7B3A6813441B781846F1
:104CE000FFF7ACFEFFF724FF0346002B03D0FFF7CE
:104CF0008DFE012309E0FB7B0133FB73FA7B7B799B
:104D00009A42E8D3FFF782FE002318461037BD46CB
:104D100080BD80B582B000AF3B600346FB710B469F
:104D2000BB7113467B71FFF751FEFB795B00DBB271
:104D30001846FFF783FEFFF7FBFE0346002B03D068
:104D4000FFF764FE012332E0BB791846FFF776FED9
:104D5000FFF7EEFEFFF73AFEFB795B005BB243F034
:104D600001035BB2DBB21846FFF768FEFFF7E0FE17
:104D700017E07B79012B07D10020FFF79FFE034648
:104D80001A463B681A7006E00120FFF797FE0346BB
:104D90001A463B681A707B79013B7B713B68013393
:104DA0003B607B79002BE4D1FFF730FE00231846EF
:104DB0000837BD4680BD80B582B000AF00237B6060
:104DC00000233B6000237B600CE000233B6002E09B
:104DD0003B6801333B603B68B3F57A7FF8DB7B6867
:104DE00001337B607B68B3F57A7FEEDB00216B20BB
:104DF000FFF72CFF07211920FFF728FF06211A20B3
:104E0000FFF724FF00211C20FFF720FF18211B20A3
:104E1000FFF71CFF00BF0837BD4680BD80B584B0DA
:104E200000AF0346FB71294B93F82430002B1CD0B4
:104E3000FB79002B02D00223FB7301E00023FB73FC
:104E4000224B5B681878214B1B68D97B07F10F0355
:104E50000122FFF71CFF0346002B02D04FF0FF3367
:104E600030E0FA7B194B5A742BE0184B9B7A002BDD
:104E700002D14FF0FF3325E0FB79002B05D0134B17
:104E80005B7C002B01D000231CE0FB79002B02D0BF
:104E90000123FB7301E00023FB730C4B5B68187864
:104EA0000A4B1B68D97B07F10F030122FFF7EFFEC6
:104EB0000346002B02D04FF0FF3303E0FA7B034B95
:104EC0005A74002318461037BD4680BDDC00002010
:104ED00080B582B000AF80233B70824B5B6818784E
:104EE000804B1B68997C3B460122FFF7D0FE0346AE
:104EF000002B02D04FF0FF33EFE06420FCF714FBEF
:104F000000233B70774B5B681878764B1B68997C65
:104F10003B460122FFF7BBFE0346002B02D04FF0B9
:104F2000FF33DAE06F4B5B6818786E4B1B68997D36
:104F30003B460622FFF7EDFE0346002B02D04FF062
:104F4000FF33CAE07B799B005BB203F004035AB2E3
:104F5000FB785B005BB203F002035BB213435AB20F
:104F60007B785BB203F001035BB213435BB2FB716E
:104F7000FB79002B15D0FB79012B03D1594B012272
:104F8000DA7438E0FB79022B03D1564B0022DA7435
:104F900031E0FB791946544804F016FA4FF0FF331C
:104FA0009BE0504B5B6818784E4B1B68D9783B46AA
:104FB0000122FFF7AEFE0346002B02D04FF0FF3375
:104FC0008BE03B7803F00F03FB71FB79002B05D1DD
:104FD000464804F07FFA4FF0FF337EE0FB79042B64
:104FE00006D1434804F076FA3E4B0122DA7402E01F
:104FF0003C4B0022DA743B4BFF229A72394BFF2262
:105000001A72384BFF225A72364BFF22DA72354B36
:105010004FF6FF72DA81334BFF221A74314BFF22B5
:105020009A74304B01221A732E4B012283F82220EE
:105030002C4B002283F823202A4B00225A75294B3F
:1050400000221A750C2200212A4804F0B5F9254BDC
:10505000002283F82420234B002283F82520214BB3
:105060000022DA844FF4FA6000F0FAF90346002BCC
:1050700002D04FF0FF3330E0022000F07FFA034609
:10508000002B02D04FF0FF3327E02A2000F01AFB5C
:105090000346002B02D04FF0FF331EE0322000F019
:1050A00077FB0346002B02D04FF0FF3315E00020C2
:1050B00000F05AFC0346002B02D04FF0FF330CE007
:1050C000002000F0A7FD0346002B02D04FF0FF3375
:1050D00003E0002000F09AFC002318460837BD4684
:1050E00080BD00BFDC00002080C30008A8C300080A
:1050F000F4C30008F200002080B584B000AF03467E
:10510000FB71FB79282B02D94FF0FF336AE0FB7962
:10511000002B1CD1002000F043FE00233B7307232B
:105120007B73324B5B681878304B1B68997C07F1B6
:105130000C030222FFF7ABFD0346002B02D04FF019
:10514000FF334FE0294B00221A7500234AE001206B
:1051500000F026FE20233B73FB79012B05D10023B1
:105160007B73052000F0AEFA16E0FB79052B05D81D
:1051700001237B73052000F0A5FA0DE0FB79142BC9
:1051800005D802237B730A2000F09CFA04E0032375
:105190007B73142000F096FA7B7B9B015BB243F09B
:1051A00007035BB2DBB27B73104B5B6818780F4B65
:1051B0001B68997C07F10C030222FFF768FD034688
:1051C000002B02D04FF0FF330CE0084B08229A72FC
:1051D000064B00221A73054B01221A75002000F0BD
:1051E000C3FB002318461037BD4680BDDC000020FD
:1051F00080B582B000AF7E4B9B7A002B02D14FF07E
:10520000FF33F1E00023FB71794B5B681878784B32
:105210001B68D97BFB1D0122FFF739FD0346002BDC
:1052200002D04FF0FF33DFE0714B5B681878704BB2
:105230001B685979FB1D0122FFF729FD0346002B4E
:1052400002D04FF0FF33CFE0694B5B681878684BB2
:105250001B681979FB1D0122FFF719FD0346002B7E
:1052600002D04FF0FF33BFE0614B93F82430002BA6
:105270005CD00C23FB715E4B5B6818785C4B1B6841
:105280001979FB1D0122FFF702FD0346002B02D016
:105290004FF0FF33A8E03220FCF746F9C023FB7142
:1052A000534B9B7A03F00103002B04D0FB7943F0AE
:1052B0002003DBB2FB714E4B5B6818784C4B1B68CC
:1052C0001979FB1D0122FFF7E2FC0346002B02D0F7
:1052D0004FF0FF3388E0464B5B7C002B02D002236B
:1052E000FB7101E00023FB71414B5B681878404B78
:1052F0001B68D97BFB1D0122FFF7C9FC0346002B6D
:1053000002D04FF0FF336FE00023FB71384B5B6836
:105310001878374B1B685979FB1D0122FFF7B7FC42
:105320000346002B5FD04FF0FF335DE00423FB7199
:105330002F4B5B6818782E4B1B681979FB1D0122D7
:10534000FFF7A5FC0346002B02D04FF0FF334BE0E4
:10535000274B9B7C002B05D1254B9B7A03F0010347
:10536000002B02D14023FB7101E06023FB71204B35
:105370005B6818781E4B1B681979FB1D0122FFF72B
:1053800086FC0346002B02D04FF0FF332CE0322086
:10539000FCF7CAF8164B5B7C002B02D00123FB7193
:1053A00001E00023FB71124B5B681878104B1B68FF
:1053B000D97BFB1D0122FFF76AFC0346002B02D0BC
:1053C0004FF0FF3310E00A4B5B681878084B1B68FE
:1053D0005979084B0122FFF75AFC0346002B02D0F3
:1053E0004FF0FF3300E0002318460837BD4680BD6C
:1053F000DC000020EC00002080B483B000AF7860B7
:10540000164B1B7A032B1ED801A252F823F000BFC3
:105410002154000829540008335400083D54000862
:105420007B68FA221A8012E07B684FF4FA721A80C5
:105430000DE07B684FF47A721A8008E07B684FF4C5
:10544000FA621A8003E07B6800221A8000BF002302
:1054500018460C37BD4680BC704700BFDC000020FA
:1054600080B584B000AF0346FB80264B9B7A002BAF
:1054700002D14FF0FF3341E0FB88B3F5FA6F17D04C
:10548000B3F5FA6F17DCB3F57A7F0ED0B3F57A7FF8
:1054900011DCFA2B03D0B3F5FA7F03D00BE0002325
:1054A000FB730BE00823FB7308E01023FB7305E09C
:1054B0001823FB7302E04FF0FF331FE0114B1A7A01
:1054C000FB7BDB08DBB29A4201D1002316E00D4BD7
:1054D0005B6818780B4B1B68997907F10F03012261
:1054E000FFF7D5FB0346002B02D04FF0FF3305E05A
:1054F000FB7BDB08DAB2034B1A7200231846103725
:10550000BD4680BDDC00002080B483B000AF786071
:10551000194B5B7A032B1BD801A252F823F000BF72
:105520003155000839550008415500084955000813
:105530007B6802221A700EE07B6804221A700AE06F
:105540007B6808221A7006E07B6810221A7002E05D
:105550004FF0FF330AE0084BDB7C002B05D07B6863
:105560001B785B00DAB27B681A70002318460C3790
:10557000BD4680BC704700BFDC00002080B584B011
:1055800000AF0346FB71304B9B7A002B02D14FF0EA
:10559000FF3354E0FB79023B0E2B2DD801A252F8C9
:1055A00023F000BFE1550008F9550008E755000851
:1055B000F9550008F9550008F9550008ED5500089F
:1055C000F9550008F9550008F9550008F955000883
:1055D000F9550008F9550008F9550008F355000879
:1055E0000023FB730BE00823FB7308E01023FB731D
:1055F00005E01823FB7302E04FF0FF331FE0124B6E
:105600005A7AFB7BDB08DBB29A4201D1002316E019
:105610000D4B5B6818780C4B1B68D97907F10F03A9
:105620000122FFF734FB0346002B02D04FF0FF337B
:1056300005E0FB7BDB08DAB2034B5A720023184605
:105640001037BD4680BD00BFDC00002080B483B0B1
:1056500000AF78601A4BDB7A013B052B26D801A2FC
:1056600052F823F07D560008855600088D56000834
:10567000955600089D560008A55600087B68BC2278
:105680001A8017E07B6862221A8013E07B682A2266
:105690001A800FE07B6814221A800BE07B680A22D4
:1056A0001A8007E07B6805221A8003E07B680022ED
:1056B0001A8000BF002318460C37BD4680BC7047D7
:1056C000DC00002080B584B000AF0346FB80234B94
:1056D0009B7A002B02D14FF0FF333BE0FB88BB2BC2
:1056E00002D90123FB7319E0FB88612B02D9022345
:1056F000FB7313E0FB88292B02D90323FB730DE016
:10570000FB88132B02D90423FB7307E0FB88092BCA
:1057100002D90523FB7301E00623FB730F4BDA7AF2
:10572000FB7B9A4201D1002314E00C4B5B68187894
:105730000A4B1B68997807F10F030122FFF7A7FABC
:105740000346002B02D04FF0FF3303E0FA7B034BFC
:10575000DA72002318461037BD4680BDDC000020F9
:1057600080B483B000AF7860084B93F82430002BEE
:1057700002D04FF0FF3304E0044BDA897B681A80D3
:10578000002318460C37BD4680BC7047DC00002063
:1057900080B584B000AF0346FB802F4B9B7A002B73
:1057A00002D14FF0FF3353E02B4B93F82430002B02
:1057B00002D04FF0FF334BE0274B1B7D002B0FD067
:1057C000FB88002B09D0FB88282B06D8FB88DBB28E
:1057D0001846FFF791FC00233AE00020FFF78CFC0D
:1057E000FB88032B02D80423FB8006E0FB88B3F57B
:1057F0007A7F02D94FF47A73FB80FB884FF47A7278
:1058000092FBF3F3DBB2013BDBB2FB73124B5B6841
:105810001878114B1B68597807F10F030122FFF725
:1058200036FA0346002B02D04FF0FF3310E0FB7B2B
:1058300001334FF47A7292FBF3F39AB2064BDA819A
:10584000054BDB895B089BB21846FFF73BFF002343
:1058500018461037BD4680BDDC00002080B483B000
:1058600000AF7860144B1B7A032B1BD801A252F8AF
:1058700023F000BF855800088D580008955800088F
:105880009D5800087B680D4A1A600EE07B680C4A40
:105890001A600AE07B680B4A1A6006E07B680A4AD5
:1058A0001A6002E04FF0FF3300E0002318460C3787
:1058B000BD4680BC704700BFDC00002000000343F1
:1058C00000008342333303423333834180B483B0D7
:1058D00000AF78601B4B5B7A032B1FD801A252F8F4
:1058E00023F000BFF5580008FF58000809590008C8
:1058F000135900087B684FF480421A8011E07B68DE
:1059000041F69C721A800CE07B684FF480521A803A
:1059100007E07B684FF400621A8002E04FF0FF332B
:105920000AE0084BDB7C002B05D07B681B885B08FA
:105930009AB27B681A80002318460C37BD4680BC9B
:10594000704700BFDC00002080B483B000AF7860F7
:10595000044B1A7C7B681A70002318460C37BD462E
:1059600080BC7047DC00002080B584B000AF0346E7
:10597000FB710023FB60FB7923F00103FB71224BD9
:1059800093F82430002B01D0002338E01E4B9B7A83
:10599000002B02D14FF0FF3331E01B4B1B7CFB721D
:1059A000194B9A7AFB791340DAB2174B1A74164BDB
:1059B0001B7CFA799A4203D04FF0FF33FB6001E081
:1059C0000023FB60FB79002B03D10F4B1B7D002BC9
:1059D00003D00120FFF722FA02E00020FFF71EFAB1
:1059E000FB79002B0AD0FFF703FC0346002B05D000
:1059F000054AFB7A13744FF0FF3300E0FB6818464A
:105A00001037BD4680BD00BFDC00002080B584B0EB
:105A100000AF0346FB71FB7903F07003002B02D04B
:105A20000123FB7307E0FB79002B02D00023FB73FB
:105A300001E04023FB73374B5B681878354B1B68DC
:105A4000997C07F10F030122FFF721F90346002B90
:105A500005D0304B00229A724FF0FF3356E0FB7BAB
:105A600023F04003DAB22B4B1A730023FB73FB794C
:105A700003F04003002B04D1FB7B43F00403DBB2B3
:105A8000FB73FB7903F02003002B04D1FB7B43F075
:105A90000203DBB2FB73FB7903F01003002B04D18C
:105AA000FB7B43F00103DBB2FB73FB7903F00803DC
:105AB000002B04D1FB7B43F03803DBB2FB73154BA7
:105AC0005B681878134B1B68D97C07F10F03012220
:105AD000FFF7DDF80346002B05D00E4B00229A722B
