:102A3A0075C105122EBE122C04122DFB7818121322
:102A4A00AB00000000E47817F6300127C201122D0E
:102A5A00C1781812132A8F288E278D268C25E4F523
:102A6A002CF52BF52AF529FFFEFDFC121F54C28511
:102A7A00122CE1300250C202781812132AE4FBFA2F
:102A8A007980783F120D227818121393E4FFFE7DA5
:102A9A00B47C437818121346120FB94009781812F9
:102AAA0013AB00000000E4FFFE7D8C7C4378181213
:102ABA001346120FB9700F781706E6D3940774807D
:102ACA0094804002E4F6300304C203B204200003F7
:082ADA00022A53C200022A5334
:0E2EBE00758C63758AC0438903D28CD2A92219
:03000B00022D7F44
:102D7F00C0E0C0D075D000C000D201786006E6C3B5
:102D8F0094057480948040237600D2020806E6945E
:102D9F00057480948040147600D203785F06E69421
:102DAF00027480948040047600D200D000D0D0D03E
:022DBF00E03200
:102EA500E4FEEEC39F5011E4FDFC0DBD00010CBC1A
:082EB5005DF8BDC0F50E80EAD6
:012EBD0022F2
:102E5A00A2059284E4FFEFC394087480948050180A
:102E6A00C280E52130E704D2818002C281D280E5A6
:082E7A002125E0F5210F80DEA7
:012E8200222D
:102C0400C282C2837F04122EA5D2837F06122EA510
:102C1400C20575212C122E5A7F01122EA5C20575EC
:102C2400212E122E5A7F01122EA5C20575212F12B4
:102C34002E5A7F01122EA5C205752123122E5AC2C7
:102C440005752181122E5AC205752128122E5AC2E9
:102C5400057521A2122E5AC2057521C8122E5AC218
:102C6400057521A0122E5AC205752160122E5AC272
:0A2C7400057521AF122E5AD28222FC
:102E83000DC205EF24B0F521122E5AC205ED540FE1
:102E9300F521122E5AC205EDC4540F2410F5210258
:022EA3002E5AA5
:102DFB00C282E4FEEEC39409748094805021AF0626
:102E0B00E4FD122E83E4FDEDC39484748094805012
:102E1B000BD205E4F521122E5A0D80EB0E80D5D284
:012E2B008224
:012E2C002283
:102CE1005393C05394C0C282E4FEEEC3940874802F
:102CF1009480503AAF06E4FD122E83E4FDEDC394B7
:102D010080748094805024D20575F080EEA4240054
:102D1100F582E5F03400F583E5822DF582E4358313
:102D2100F583E0F521122E5A0D80D20E80BCD2829D
:012D3100227F
:102DC100E4FFEFC3940874809480502DE4FEEEC3B9
:102DD100948074809480501E75F080EFA42400F5D7
:102DE10082E5F03400F583E5822EF582E43583F542
:092DF10083E4F00E80D80F80C9C4
:012DFA0022B6
:102D3200EFD3943F748094805042ED947F748094DA
:102D4200805039EF131313541F7863F6EF540708BA
:102D5200F6F87F01EF08800123D8FDFF7864F618AA
:102D6200E675F080A42400F582E5F03400F583E5F1
:0C2D7200822DF582E43583F583E04FF0FC
:012D7E002232
:0C14EA008E2D8F2E8C2F8D308A318B328E
:1014F600C3E532952EF536E531952DF535C3E53440
:101506009530F538E533952FF537C3E53564809486
:101516008050030216F3E537648094805003021668
:1015260007E5369538E5376480F8E53564809840F8
:1015360068AE35AF367C007D02121272C3E5389F65
:10154600F53AE5379EF539D3E52E9532E5316480D7
:10155600F8E52D64809840030218D3AF30AD2E1203
:101566002D32D3E53A9400E5396480948040140521
:1015760030E5307002052FE53A9536F53AE53995AE
:1015860035F539052EE52E7002052DE538253AF597
:101596003AE5373539F53980AEAE37AF387C007D60
:1015A60002121272C3E5369FF53AE5359EF539D338
:1015B600E5309534E5336480F8E52F648098400380
:1015C6000218D3AF30AD2E122D32D3E53A9400E592
:1015D60039648094804014052EE52E7002052DE5B1
:1015E6003A9538F53AE5399537F5390530E53070ED
:1015F60002052FE536253AF53AE5353539F53980D0
:10160600AEC3E49538F538E49537F537C3E5369536
:1016160038E5376480F8E5356480984068AE35AFC4
:10162600367C007D02121272C3E5389FF53AE53723
:101636009EF539D3E52E9532E5316480F8E52D64C3
:10164600809840030218D3AF30AD2E122D32D3E569
:101656003A9400E539648094804014E53015307082
:1016660002152FE53A9536F53AE5399535F53905FA
:101676002EE52E7002052DE538253AF53AE5373583
:1016860039F53980AEAE37AF387C007D0212127262
:10169600C3E5369FF53AE5359EF539C3E530953411
:1016A600E5336480F8E52F64809850030218D3AFC1
:1016B60030AD2E122D32D3E53A9400E5396480948C
:1016C600804014052EE52E7002052DE53A9538F575
:1016D6003AE5399537F539E53015307002152FE5BD
:1016E60036253AF53AE5353539F53980AEC3E49510
:1016F60036F536E49535F535C3E537648094805084
:10170600030217EAE5369538E5376480F8E535646F
:1017160080984068AE35AF367C007D02121272C3E7
:10172600E5389FF53AE5379EF539C3E52E9532E55E
:10173600316480F8E52D64809850030218D3AF30E9
:10174600AD2E122D32D3E53A9400E53964809480AB
:1017560040140530E5307002052FE53A9536F53A26
:10176600E5399535F539E52E152E7002152DE53836
:10177600253AF53AE5373539F53980AEAE37AF3823
:101786007C007D02121272C3E5369FF53AE5359E5E
:10179600F539D3E5309534E5336480F8E52F648078
:1017A6009840030218D3AF30AD2E122D32D3E53A4E
:1017B6009400E539648094804014E52E152E70025D
:1017C600152DE53A9538F53AE5399537F539053069
:1017D600E5307002052FE536253AF53AE535353917
:1017E600F53980AEC3E49538F538E49537F537C357
:1017F600E5369538E5376480F8E5356480984068C5
:10180600AE35AF367C007D02121272C3E5389FF505
:101816003AE5379EF539C3E52E9532E5316480F811
:10182600E52D64809850030218D3AF30AD2E122DEB
:1018360032D3E53A9400E539648094804014E5306B
:1018460015307002152FE53A9536F53AE539953596
:10185600F539E52E152E7002152DE538253AF53A9F
:10186600E5373539F53980AEAE37AF387C007D02C5
:10187600121272C3E5369FF53AE5359EF539C3E592
:10188600309534E5336480F8E52F648098403EAFA8
:1018960030AD2E122D32D3E53A9400E539648094AA
:1018A600804014E52E152E7002152DE53A9538F573
:1018B6003AE5399537F539E53015307002152FE5DB
:0D18C60036253AF53AE5353539F53980B16A
:0118D30022F2
:062C7E008B3C8A3D893EFB
:102C8400E4F542C3E542940474809480504EE4F524
:102C940043C3E543940474809480503CAB3CAA3D08
:102CA400A93E75F010E542A4F58285F08375F00421
:102CB400E5431214331212D6AB3FAA40A94175F072
:102CC40010E542A4F58285F08375F004E5431214FF
:0C2CD40033121306054380B9054280A7A7
:012CE00022D1
:062679008B3C8A3D893E06
:10267F00E4F545C3E5459404748094804003022734
:10268F00CAE4F546C3E5469404748094804003027F
:10269F0027C5AB3FAA40A94190001075F004E5464D
:1026AF001214331212D6C006C007E54575F010A4F8
:1026BF00AB3C253EF9E53D35F0FA9000041213636B
:1026CF00D007D006120E13C004C005C006C007AB5A
:1026DF003FAA40A94175F004E546A4F58285F08331
:1026EF001212D6AB3CAA3DA93E75F010E545A4F5F4
:1026FF008285F083121363120E13D003D002D00120
:10270F00D000120D22C004C005C006C007AB3FAAFF
:10271F0040A94190002075F004E5461214331212BF
:10272F00D6C006C007E54575F010A4AB3C253EF9B1
:10273F00E53D35F0FA900008121363D007D006126A
:10274F000E13D003D002D001D000120D22C004C04E
:10275F0005C006C007AB3FAA40A94190003075F0F5
:10276F0004E5461214331212D6C006C007E54575AC
:10277F00F010A4AB3C253EF9E53D35F0FA90000C86
:10278F00121363D007D006120E13D003D002D0015C
:10279F00D000120D22AB42AA43A94475F010E545B3
:1027AF00A4F58285F08375F004E5461214331213F5
:0B27BF0006054602269305450226820F
:0127CA0022EC
:10238700AB39AA3AA93B9000101212D6AB34AA3344
:10239700A932A831120E13C004C005C006C007AB8E
:1023A70039AA3AA93B1212B6AB30AA2FA92EA82DEB
:1023B700120E13D003D002D001D000120D22C00498
:1023C700C005C006C007AB39AA3AA93B9000201246
:1023D70012D6AB38AA37A936A835120E13D003D0B8
:1023E70002D001D000120D22AB39AA3AA93B9000C6
:1023F70030121363120D2290046C12139FAB39AA8B
:102407003AA93B9000141212D6AB34AA33A932A8CA
:1024170031120E13C004C005C006C007AB39AA3A73
:10242700A93B9000041212D6AB30AA2FA92EA82DD3
:10243700120E13D003D002D001D000120D22C00417
:10244700C005C006C007AB39AA3AA93B90002412C1
:1024570012D6AB38AA37A936A835120E13D003D037
:1024670002D001D000120D22AB39AA3AA93B900045
:1024770034121363120D2290047012139FAB39AA02
:102487003AA93B9000181212D6AB34AA33A932A846
:1024970031120E13C004C005C006C007AB39AA3AF3
:1024A700A93B9000081212D6AB30AA2FA92EA82D4F
:1024B700120E13D003D002D001D000120D22C00497
:1024C700C005C006C007AB39AA3AA93B900028123D
:1024D70012D6AB38AA37A936A835120E13D003D0B7
:1024E70002D001D000120D22AB39AA3AA93B9000C5
:1024F70038121363120D2290047412139F7B017A12
:0325070004796CE8
:01250A0022AE
:102AE2001213F53F80000090000412140F00000042
:102AF2000090000812140F0000000090000C121445
:102B02000F0000000090001012140F00000000904F
:102B1200001412140F3F80000090001812140F00CE
:102B220000000090001C12140F0000000090002012
:102B320012140F0000000090002412140F00000075
:102B42000090002812140F3F80000090002C1214F5
:102B52000F0000000090003012140F0000000090DF
:102B6200003412140F0000000090003812140F00FD
:0E2B720000000090003C12140F3F8000002273
:0A27CB008B2D8A2E892FAB05AA047E
:1027D5009004AC1213C43F8000009004B01213C4DF
:1027E500000000009004B41213C40000000090041F
:1027F500B81213C4000000009004BC1213C40000FA
:1028050000009004C01213C43F8000009004C4125D
:1028150013C4000000009004C81213C40000000097
:102825009004CC1213C4000000009004D01213C40D
:10283500000000009004D41213C43F8000009004EF
:10284500D81213C400000000AE02AF03AD07AC06FA
:10285500EC1210489004DC12139FAC32AD33EC122D
:1028650010489004E012139FAC34AD35EC121048BB
:102875009004E412139F9004E81213C43F800000F3
:10288500753F017540047541AC754201754304758A
:10289500446CAB2DAA2EA92F122679852D3F852EA6
:0D28A50040852F417B017A04796C022C7E66
:0628B2008B2D8A2E892FF8
:1028B8009004AC12139F9004B01213C400000000DF
:1028C8009004B41213C4000000009004B81213C49A
:1028D800000000009004BC1213C400000000AF37D1
:1028E800AE36AD35AC349004C012139F9004C412B8
:1028F80013C4000000009004C81213C400000000B4
:102908009004CC1213C4000000009004D01213C429
:1029180000000000AF3BAE3AAD39AC389004D41299
:10292800139F9004D81213C4000000009004DC1216
:1029380013C4000000009004E01213C4000000005B
:102948009004E41213C4000000009004E81213C4B9
:102958003F800000753F017540047541AC75420128
:1029680075430475446C122679852D3F852E408564
:0B2978002F417B017A04796C022C7E59
:0E1C49008B2D8A2E892F8F338E328D318C3069
:101C57007FDA7E0F7D497C40AB33AA32A931A830A9
:101C6700120E13E4FBFA79347843120F1C8F338E6C
:101C7700328D318C307FDA7E0F7D497C40AB37AABD
:101C870036A935A834120E13E4FBFA7934784312D7
:101C97000F1C8F378E368D358C347FDA7E0F7D495A
:101CA7007C40AB3BAA3AA939A838120E13E4FBFAD9
:101CB70079347843120F1C8F3B8E3A8D398C3890CC
:101CC70004EC1213C43F8000009004F01213C40008
:101CD7000000009004F41213C4000000009004F800
:101CE7001213C4000000009004FC1213C40000008B
:101CF70000AF33AE32AD31AC301225539005001230
:101D0700139FAF33AE32AD31AC3012256990050465
:101D170012139F9005081213C40000000090050CD1
:101D27001213C400000000AF33AE32AD31AC301235
:101D3700256912103290051012139FAF33AE32ADE2
:101D470031AC3012255390051412139F90051812C9
:101D570013C40000000090051C1213C4000000000B
:101D67009005201213C4000000009005241213C42C
:101D7700000000009005281213C43F800000AF3711
:101D8700AE36AD35AC3412255390052C12139F9007
:101D970005301213C400000000AF37AE36AD35ACC6
:101DA7003412256912103290053412139F900538AA
:101DB7001213C40000000090053C1213C400000079
:101DC700009005401213C43F800000900544121391
:101DD700C4000000009005481213C400000000AFC3
:101DE70037AE36AD35AC3412256990054C12139FCA
:101DF7009005501213C400000000AF37AE36AD3562
:101E0700AC3412255390055412139F9005581213A2
:101E1700C40000000090055C1213C400000000908D
:101E270005601213C4000000009005641213C4007B
:101E37000000009005681213C43F800000AF3BAE5E
:101E47003AAD39AC3812255390056C12139FAF3B4E
:101E5700AE3AAD39AC3812256990057012139F90D0
:101E670005741213C4000000009005781213C40013
:101E7700000000AF3BAE3AAD39AC381225691210FD
:101E87003290057C12139FAF3BAE3AAD39AC381296
:101E9700255390058012139F9005841213C40000E8
:101EA70000009005881213C40000000090058C12F2
:101EB70013C4000000009005901213C40000000036
:101EC7009005941213C43F8000009005981213C424
:101ED7000000000090059C1213C40000000090054C
:101EE700A01213C4000000009005A41213C4000040
:101EF70000009005A81213C43F800000753F0175CC
:101F070040047541EC75420175430475446CAB2D73
:101F1700AA2EA92F122679753F0175400575412C08
:101F27007542017543047544AC7B017A04796C12E0
:101F37002679753F0175400575416C852D42852EC3
:0D1F470043852F447B017A0479AC02267992
:102E2D00AF4AAE49AD48AC47121081900684EEF022
:102E3D00A3EFF0AF4EAE4DAD4CAC4B1210819006E2
:0C2E4D0086EEF0A3EFF07B017A0679849A
:012E59002256
:10298300E4FFFEFDFCAB38AA37A936A835120FB910
:10299300700AF538F53775368075353FE4FFFEFD6F
:1029A3007C43AB38AA37A936A835120D22C004C020
:1029B30005C006C007E4FFFEFD7C43AB30AA2FA988
:1029C3002EA82D120E13D003D002D001D000120F67
:1029D3001C121081900681E02FFF900680E03E904C
:1029E300046CF0A3EFF0E4FFFEFD7C43AB38AA37A1
:1029F300A936A835120D22C004C005C006C007E4DD
:102A0300FFFEFD7C43AB34AA33A932A831120E1367
:102A1300D003D002D001D000120F1C1210819006F7
:102A230083E02FFF900682E03E90046EF0A3EFF068
:062A33007B017A04796CBE
:012A3900227A
:10000E00000000000000004F000000070007001471
:10001E007F147F14242A7F2A122313086462364920
:10002E005522500005070000001C2241000041220D
:10003E001C0014083E081408083E08080050300042
:10004E00000808080808006060000020100804027C
:10005E003E5149453E00427F400042615149462192
:10006E0041454B311814127F1027454545393C4AFE
:10007E00494930017109050336494949360649494E
:10008E00291E0036360000005636000008142241A4
:10009E00001414141414004122140802015109060C
:1000AE00324979413E7E1111117E7F494949363ED2
:1000BE00414141227F4141221C7F494949417F09EB
:1000CE000909013E4149497A7F0808087F00417FAE
:1000DE0041002040413F017F081422417F404040B3
:1000EE00407F020C027F7F0408107F3E4141413E5B
:1000FE007F090909063E4151215E7F0919294646AD
:10010E004949493101017F01013F4040403F1F20D5
:10011E0040201F3F4038403F6314081463070870A7
:10012E0008076151494543007F4141000204081010
:10013E00200041417F000402010204404040404043
:10014E00010204000020545454787F484848303847
:10015E0044444444304848487F3854545458000866
:10016E007E0902485454543C7F0808087000007AF7
:10017E0000002040403D007F2028440000417F4089
:10018E00007C0438047C7C080404783844444438E9
:10019E007C14141408081414147C7C0804040848F5
:1001AE005454542404043F44243C4040403C1C20FE
:1001BE0040201C3C4030403C442810284404483029
:1001CE0008044464544C4408364141000000770052
:1001DE000000414136080402020201000000000046
:1001EE000000000000000000000000000000F80009
:1001FE00000000000000333000000000100C06105C
:10020E000C0600000000000000000040C07840C056
:10021E00784000043F04043F040400007088FC088A
:10022E00300000001820FF211E0000F008F000E052
:10023E0018000000211C031E211E0000F00888700B
:10024E000000001E2123241927211010160E000075
:10025E000000000000000000000000000000E01898
:10026E00040200000000071820400000020418E0FD
:10027E000000000040201807000000404080F08081
:10028E004040000202010F01020200000000F000D7
:10029E000000000101011F0101010000000000002B
:1002AE0000000080B07000000000000000000000A0
:1002BE000000000001010101010101000000000029
:1002CE000000000030300000000000000000008040
:1002DE00601804006018060100000000E010080815
:1002EE0010E000000F102020100F00001010F8007A
:1002FE000000000020203F202000000070080808A9
:10030E0088700000302824222130000030088888B0
:10031E004830000018202020110E000000C02010D0
:10032E00F8000000070424243F240000F808888801
:10033E000808000019212020110E0000E010888806
:10034E00180000000F112020110E0000380808C8F8
:10035E003808000000003F00000000007088080808
:10036E00887000001C222121221C0000E0100808C9
:10037E0010E0000000312222110F0000000060602A
:10038E0000000000000018180000000000008000AF
:10039E00000000000080600000000000008040208F
:1003AE0010080000010204081020004040404040A8
:1003BE00404000040404040404040000081020401B
:1003CE008000000020100804020100007048080898
:1003DE0008F0000000003036010000C030C828E8E8
:1003EE0010E0000718272423140B000000C038E08B
:1003FE00000000203C23020227382008F888888855
:10040E00700000203F202020110E00C03008080888
:10041E00083800071820202010080008F8080808DF
:10042E0010E000203F202020100F0008F88888E8F8
:10043E00081000203F20202320180008F88888E8A4
:10044E00081000203F200003000000C030080808FC
:10045E0038000007182020221E020008F8080000AD
:10046E0008F808203F210101213F20000808F80864
:10047E000800000020203F2020000000000808F89F
:10048E00080800C08080807F00000008F888C0281F
:10049E00180800203F20012638200008F808000028
:1004AE00000000203F20202020300008F8F800F83F
:1004BE00F80800203F003F003F200008F830C00041
:1004CE0008F808203F200007183F00E01008080831
:1004DE0010E0000F10202020100F0008F808080868
:1004EE0008F000203F210101010000E0100808087B
:1004FE0010E0000F18242438504F0008F888888820
:10050E00887000203F2000030C30200070880808FF
:10051E000838000038202121221C00180808F8088D
:10052E000818000000203F2000000008F808000016
:10053E0008F808001F202020201F000878880000DF
:10054E00C83808000007380E010000F80800F8004F
:10055E0008F800033C0700073C0300081868808079
:10056E0068180820302C03032C30200838C800C827
:10057E003808000000203F2000000010080808C8BE
:10058E003808002038262120201800000000FE0226
:10059E000202000000007F40404000000C30C0000E
:1005AE00000000000000010638C00000020202FE3A
:1005BE00000000004040407F0000000000040202E6
:1005CE000204000000000000000000000000000017
:1005DE000000008080808080808080000202040005
:1005EE00000000000000000000000000008080807D
:1005FE008000000019242222223F2008F80080806B
:10060E00000000003F112020110E0000000080802D
:10061E00800000000E1120202011000000008080BC
:10062E0088F800000E112020103F200000808080EE
:10063E00800000001F222222221300008080F088FA
:10064E008888180020203F20200000000080808035
:10065E00808000006B94949493600008F800808072
:10066E00800000203F210000203F2000809898004D
:10067E000000000020203F20200000000000809895
:10068E0098000000C08080807F000008F800008085
:10069E00808000203F24022D302000000808F80042
:1006AE000000000020203F202000008080808080FD
:1006BE00808000203F20003F20003F80800080800F
:1006CE00800000203F210000203F2000008080801D
:1006DE00800000001F202020201F008080008080CE
:1006EE0000000080FFA12020110E0000000080807D
:1006FE00808000000E112020A0FF8080808000806E
:10070E0080800020203F212000010000008080809A
:10071E008080000033242424241900008080E0808F
:10072E008000000000001F202000008080000000DC
:10073E00808000001F202020103F2080808000003D
:10074E0080808000010E300806010080800080004D
:10075E008080800F300C030C300F000080800080F2
:10076E008080000020312E0E31200080808000001D
:10077E0080808080818E70180601000080808080CD
:10078E008080000021302C222130000000000080EB
:10079E007C020200000000003F404000000000FF0D
:1007AE0000000000000000FF0000000002027C803C
:1007BE000000000040403F00000000000601010262
:1007CE000204040000000000000000000000000011
:1007DE00000000000080C0E0E070703838181C1C6B
:1007EE001C1C0C0C0E0ECECEEEFEFEFEFE7E3E3E13
:1007FE001E1E9E9E8680C0C0C0C00000000000006D
:10080E00000000000080F0F0F0F0F000000000E0CA
:10081E00F0FC1E0F070301000000000000000000A6
:10082E00C0E0789CFEFFFFFFFF3F1E0F0F0FCFEFC4
:10083E00F7FFFF7F1F0F0301000000000000000004
:10084E000080E0F0FC7F3F0F070100000000000F6A
:10085E001F3F70707070707070703838000080C0FC
:10086E00E0F0FF7F3F1F0F070380E0F8FEFFFFFB66
:10087E00FFFFE3800000000080C0C0E070381C0E57
:10088E00070703010000000000000013373E3E3C46
:10089E007C7C7C7C3C3C3C3C3C1C1E1E0F0F0707AA
:1008AE000301000000000000003F7F7F7F7F7F3F3D
:1008BE003F3F1F1F0F0E070703010000000000003F
:1008CE0000000000000000000000007F7F7F7F7F9F
:1008DE007F7F41414141414141414141414141417E
:1008EE0041417F0000FFFF00003C7E424242423CFD
:1008FE007E42427E7E3C7E7E7E7E7E424242427EB4
:10090E000042427E7E7E007E7E7E7E7E0000000065
:10091E00000000000000000080C0C0C0E0E0E0F079
:10092E00F0F0F8F8F8F8F8F8000000000000000009
:10093E000000000000000000FFFF7F1F1F1F0F0FB1
:10094E000F0F07070707FFFF000000000000000061
:10095E0000C0C0E0E0E0E0E0FFFF00000000F0F8C3
:10096E00FCFCFCFCFCFCFFFF000000000000000093
:10097E000F1F1F1F1F1F1F1F0F0700000000010367
:10098E0003030303030301000000000000000080C6
:10099E00C0E0F0F8783C3C1E1E0E0E8F8F8F8F8FAE
:1009AE000F0F0E0E1E1E3C7CF8F0E0C000F8FFFF8D
:1009BE007F07010000E0F8FCFE7F1F0F070303070F
:1009CE00CFFEFFFF7F0F00000003FFFFFF3FFFFF83
:1009DE00F8C08000001F7FFFFFF8E0E0E0F0787EB7
:1009EE007FFFFFF7E0E0F0F87C3F1F0F03000003EE
:1009FE00070F1F1E3E3C787870F0F0F0F0F0F0F02C
:100A0E00F070707878383C1E1E0E0C00000000004E
:100A1E0000000000000000000000000000C0F838D8
:100A2E001818183030F8FC8C8CFCF80000E0F03010
:100A3E00F0F070703018181C0C0C0C0C0E0F0F0C04
:100A4E000C0C181818307171F1F130F0E0033FFF03
:100A5E00E381000000000F9F9F8F0600000000063C
:100A6E008F9F9F0F0000000081E3FF3F03000000F7
:100A7E000103070E0C1C1819193333333333333378
:100A8E00331919181C0C0E0703010000000000C0DA
:100A9E00E0F0F83818181838F8F8F8F8D8180800F0
:100AAE00000000000000F8F8000000000000021F27
:100ABE003F7FFEF0E0C0C0C0E0FF7F3F1F000000A0
:100ACE000003030303037F7F030303030380C0E0DC
:100ADE00F0703838181F1F1F1F3F7CF8F8E0000019
:100AEE00000000000000000000000000000F1F3F8B
:100AFE003F787070706070707070383F1F0F00001C
:100B0E0000000000000000000000000000C0C0C097
:100B1E00C0C0C0C0C0C0C0C0C0C0C0C000000000C7
:100B2E0000000000000000000000000000010101B4
:100B3E000101030F1F3F7FFFFDF9F1C18080C2E667
:100B4E00F6FE7E3E1E1E0E06E6E6E6E0E000000025
:100B5E00000000000000000083FFFFFFFFFFFF0307
:100B6E000100000000000000BFBFBF1F0100000019
:100B7E000000000000030303030303030303030346
:100B8E000303030000000000030303000000000045
:100B9E0000000000000000000080808000000000C7
:100BAE0000303030303060E0C080000000000000C7
:100BBE00C0E0F0F87C7E3E3F3F3F3F3F3F3038780D
:100BCE00F8F8F3E3073E3C0001FF7F0000003C7F96
:100BDE00FFE3C180387C46C6CFFFF37F7E3C0080AA
:100BEE0080C1E3FFFFFF7F1E000000000000000039
:100BFE00010103030707060E0E0E0E0E0E0E0F0753
:100C0E0007070303010000000000000000000000C1
:100C1E00000080C0E0E0F0F0F8F8F8FC7C7CFCF816
:100C2E00F8F8B07060E0C08000000000000000C066
:100C3E00F8FEFFFFFFFFFFFFFFFFFFFCF8F8FCFFD2
:100C4E00FF7F3F0E000001073EF8C00000000003CA
:100C5E001F7FFFFFFFFFFF9F07030161F1F06000A1
:100C6E00000000000000C0E07E1F03000000000036
:100C7E000000010307070F0F1E1C18383030301804
:100C8E0018180C0E060703010000000000000000FB
:100C9E00000080C0E0E0F0F0783838383838383866
:100CAE003878F0F0E0E0C0800000000000000000A6
:100CBE00F8FEFF0F070100F0F0F0F000000000F06A
:100CCE00F0F0F00001070FFFFEF80000000000003A
:100CDE001F7FFFF0E08818383070606060606060E1
:100CEE007030381888E0F0FF7F1F00000000000011
:100CFE000000010307070F0F1E1C1C1C1C1C1C1CD4
:0D0D0E001C1E0F0F0707030100000000006E
:0E21F9008B088A09890A8F0E8E0D8D0C8C0BB7
:102207007B017A067924122AE27B017A0679247502
:1022170032FF7533F0E4F534F5357DF07CFF122796
:10222700CB7B017A067924851237851136851035DF
:10223700850F3485163B85153A851439851338AFD4
:102247000EAE0DAD0CAC0B121C497B017A0679243E
:10225700E4F532F533F534753520FDFC1227CB90C4
:102267000680E4F0A37440F0900682E4F0A37420A3
:10227700F0E4781CF6781CE6C394047480948040DC
:1022870003022386E4781EF6781EE6FFC3940874DB
:102297008094804003022375A8077F01EF0880011F
:1022A70023D8FD781FF6E4781DF6781DE6FFC39462
:1022B7002074809480400302236FAB08AA09A90AFF
:1022C7008F82758300121245781F567003022369A7
:1022D700781DE6FCE412104D90066412139F781CDB
:1022E700E675F008A4FF781EE67C002FFDEC35F0BC
:1022F700FC12104890066812139F90066C1213C4C4
:10230700C1C00000782D7C007D007B017A067964CE
:102317007E007F0C12121F753901753A06753B2432
:1023270012238778707C067D017E007F0C12121FB6
:10233700782D7C007D007B017A0679707E007F0C0A
:1023470012121F122983787C7C067D017E007F0490
:1023570012121F90067EA3E0FF90067CA3E0FD12F9
:102367002D32781D060222B1781E0602228F7420B4
:0F237700250AF50AE43509F509781C0602227CCF
:012386002234
:102B80000000000000000000000000004100000004
:102B900000000000000000000000000041000000F4
:102BA00000000000410000004100000000000000A3
:102BB0000000000000000000410000004100000093
:102BC0000000000041000000000000004100000083
:102BD00041000000410000004100000041000000F1
:102BE00040800000400000000000000040000000A5
:102BF00040C000000000000040C0000040C00000D5
:042C000000000000D0
:0818D4008F568E558D548C5384
:1018DC007B017A0579AC122AE27B017A0579AC7529
:1018EC0032FF7533FC7534FF7535FC7DFC7CFF12C3
:1018FC0027CB7B017A0579ACE4F537F5367535A045
:10190C00753440F53BF53A7539A0753840FFFE7DCE
:10191C00A07C401228B27B017A0579AC855A3785B8
:10192C005936855835855734855E3B855D3A855CDF
:10193C0039855B38AF56AE55AD54AC53121C497B50
:10194C00017A0579AC753200753320753400753524
:10195C00207D407C001227CBE47865F67865E6FFA5
:10196C00C3940874809480506EEF75F00CA424809E
:10197C00F9742B35F0FA7BFF782D7C007D007E000E
:10198C007F0C12121F753901753A05753BAC122389
:10199C008778EC7C057D017E007F0C12121F784746
:1019AC007C007D007B017A0579EC7E007F0C1212A5
:1019BC001F122E2DC0017865E675F004A424F8F9E9
:1019CC00740535F0A801FC7D01D0017E007F041266
:1019DC00121F7865068085E47865F67865E6FFC3A6
:1019EC00940374809480506EEF75F00CA424E0F98D
:1019FC00742B35F0FA7BFF782D7C007D007E007F08
:101A0C000C12121F753901753A05753BAC12238700
:101A1C0078EC7C057D017E007F0C12121F78477CD0
:101A2C00007D007B017A0579EC7E007F0C12121F81
:101A3C00122E2DC0017865E675F004A42418F974F3
:101A4C000635F0A801FC7D01D0017E007F04121246
:101A5C001F78650680859005F8E0FEA3E0FFA3E003
:101A6C00FCA3E0FDA3E0FAA3E0FBA3E0F533A3E0C5
:101A7C00F5341214EA9005F8E0FEA3E0FFA3E0FCB5
:101A8C00A3E0FD900600E0FAA3E0FBA3E0F533A38E
:101A9C00E0F5341214EA900604E0FEA3E0FFA3E0A4
:101AAC00FCA3E0FD9005FCE0FAA3E0FBA3E0F5331A
:101ABC00A3E0F5341214EA900604E0FEA3E0FFA3C1
:101ACC00E0FCA3E0FD900600E0FAA3E0FBA3E0F548
:101ADC0033A3E0F5341214EA900608E0FEA3E0FF0D
:101AEC00A3E0FCA3E0FDA3E0FAA3E0FBA3E0F53345
:101AFC00A3E0F5341214EA900608E0FEA3E0FFA37D
:101B0C00E0FCA3E0FD900610E0FAA3E0FBA3E0F5F7
:101B1C0033A3E0F5341214EA900614E0FEA3E0FFC0
:101B2C00A3E0FCA3E0FD90060CE0FAA3E0FBA3E02D
:101B3C00F533A3E0F5341214EA900614E0FEA3E0AA
:101B4C00FFA3E0FCA3E0FD900610E0FAA3E0FBA3EA
:101B5C00E0F533A3E0F5341214EA9005F8E0FEA3A7
:101B6C00E0FFA3E0FCA3E0FD900608E0FAA3E0FB95
:101B7C00A3E0F533A3E0F5341214EA9005FCE0FE83
:101B8C00A3E0FFA3E0FCA3E0FD90060CE0FAA3E0C9
:101B9C00FBA3E0F533A3E0F5341214EA900600E061
:101BAC00FEA3E0FFA3E0FCA3E0FD900610E0FAA387
:101BBC00E0FBA3E0F533A3E0F5341214EA9006043D
:101BCC00E0FEA3E0FFA3E0FCA3E0FD900614E0FA26
:101BDC00A3E0FBA3E0F533A3E0F5341214EA90067E
:101BEC0018E0FEA3E0FFA3E0FCA3E0FDA3E0FAA352
:101BFC00E0FBA3E0F533A3E0F5341214EA900618E9
:101C0C00E0FEA3E0FFA3E0FCA3E0FD900620E0FAD9
:101C1C00A3E0FBA3E0F533A3E0F5341214EA90063D
:101C2C001CE0FEA3E0FFA3E0FCA3E0FDA3E0FAA30D
:0D1C3C00E0FBA3E0F533A3E0F5340214EA69
:081F54008F248E238D228C21C5
:101F5C007B017A047900122AE27B017A04790075FC
:101F6C0032FF7533FC7534FF7535FC7DFC7CFF123C
:101F7C0027CB7B017A047900E4F537F5367535C04B
:101F8C00753440F53BF53A7539C0753840FFFE7D28
:101F9C00C07C401228B27B017A04790085283785F1
:101FAC002736852635852534852C3B852B3A852A85
:101FBC0039852938AF24AE23AD22AC21121C497BC4
:101FCC00017A047900E4F532F533F534753520FDEA
:101FDC00FC1227CB900680E4F0A37440F0900682AC
:101FEC00E4F0A37420F0E47862F67862E6FFC39420
:101FFC000874809480506EEF75F00CA42480F974F2
:10200C002B35F0FA7BFF782D7C007D007E007F0C59
:10201C0012121F753901753A04753B00122387782B
:10202C00407C047D017E007F0C12121F782D7C00F9
:10203C007D007B017A0479407E007F0C12121F1206
:10204C002983C0017862E675F004A4244CF9740469
:10205C0035F0A801FC7D01D0017E007F0412121F17
:10206C00786206808590044CE0FEA3E0FFA3E0FCC0
:10207C00A3E0FDA3E0FAA3E0FBA3E0F533A3E0F5B6
:10208C00341214EA90044CE0FEA3E0FFA3E0FCA39E
:10209C00E0FD900454E0FAA3E0FBA3E0F533A3E0E9
:1020AC00F5341214EA900458E0FEA3E0FFA3E0FC20
:1020BC00A3E0FD900450E0FAA3E0FBA3E0F533A30A
:1020CC00E0F5341214EA900458E0FEA3E0FFA3E01C
:1020DC00FCA3E0FD900454E0FAA3E0FBA3E0F5338D
:1020EC00A3E0F5341214EA90045CE0FEA3E0FFA335
:1020FC00E0FCA3E0FDA3E0FAA3E0FBA3E0F533A32F
:10210C00E0F5341214EA90045CE0FEA3E0FFA3E0D7
:10211C00FCA3E0FD900464E0FAA3E0FBA3E0F5333C
:10212C00A3E0F5341214EA900468E0FEA3E0FFA3E8
:10213C00E0FCA3E0FD900460E0FAA3E0FBA3E0F573
:10214C0033A3E0F5341214EA900468E0FEA3E0FF38
:10215C00A3E0FCA3E0FD900464E0FAA3E0FBA3E0A1
:10216C00F533A3E0F5341214EA90044CE0FEA3E03E
:10217C00FFA3E0FCA3E0FD90045CE0FAA3E0FBA36A
:10218C00E0F533A3E0F5341214EA900450E0FEA31A
:10219C00E0FFA3E0FCA3E0FD900460E0FAA3E0FB09
:1021AC00A3E0F533A3E0F5341214EA900454E0FEF6
:1021BC00A3E0FFA3E0FCA3E0FD900464E0FAA3E03D
:1021CC00FBA3E0F533A3E0F5341214EA900458E0D5
:1021DC00FEA3E0FFA3E0FCA3E0FD900468E0FAA3FB
:0D21EC00E0FBA3E0F533A3E0F5340214EAB4
:100D1B000210EDE86480F8E933E83360110460F009
:100D2B00ED33EC337009E8FCE9FDEAFEEBFF22043E
:100D3B0060DED3EB9FEA9EE99DE8C2E78CF0C2F739
:100D4B0095F0400CE8CCF8E9CDF9EACEFAEBCFFB05
:100D5B001210B885D0F05804700320D5B3E8047096
:100D6B00075002B2D50210F792D5EC0460F7E4CC31
:100D7B00C0E0C398F8603B94186008400DD0E0FBCE
:100D8B000210CFE4FBFAC9FC8028E830E406E4C982
:100D9B00FBE4CAFCE830E305E4C9CACBFCE8540722
:100DAB006010F8C3E913F9EA13FAEB13FBEC13FC2D
:100DBB00D8F130F52FC3E49CFCEF9BFFEE9AFEEDD0
:100DCB0099FDD0E0FBEF4E4D4C701222DB0302106D
:100DDB00F4EC2CFCEF33FFEE33FEED33FDED30E79F
:100DEB00EB0210CFEF2BFFEE3AFEED39FDD0E0FB1F
:100DFB0050130BBB00030210F7ED13FDEE13FEEFC8
:080E0B0013FFEC13FC0210CFF1
:100E1300EC4D6011E8497017ED33EC3304600DE4D9
:100E2300FCFFFEFD22E933E8330470F80210ED12F3
:100E330010B858046009E4CC2481500628500902F4
:100E430010F72840030210F4C0E0EB4A7044B98065
:100E530006D0E0FB0210E3EF4E701CBD8008EBFFF1
:100E6300EAFEE9FD80EBE98DF0A4FEE5F0020EFC5D
:100E7300E9CDF9EAFEEBFFEF89F0A4FCE5F0CE89BA
:100E8300F0A42EFFE435F0CD89F0A42DFEE435F077
:100E93008067EF4E7005BD80D780C3EF8BF0A4ACA5
:100EA300F0EE8BF0A42CFCE435F0F8EF8AF0A42CE0
:100EB300E5F038FCE433CB8DF0A42CFCE5F03BF8F3
:100EC300EE8AF0A42CFCE5F038F8E433CF89F0A4E3
:100ED3002CFCE5F038CF3400CE89F0A42FFFE5F0E9
:100EE3003EFEE433C98DF0A42EFEE5F039CD8AF041
:100EF300A42FFFE5F03EFEE43DFD33D0E0FB5007B9
:100F03000BBB000F0210F7EC2CFCEF33FFEE33FEAC
:060F1300ED33FD0210CFDA
:100F19000210F7EC5D046005E8590470030210ED56
:100F29001210B8580460F6EC4860F2EC7004FDFE4B
:100F3900FF22C860DB2481C85009C39860025006AB
:100F49000210F49850CAF582E9294B4A7005AB8220
:100F59000210E375F0007C1A7880C3EF9BEE9AEDDE
:100F690099400DC3EF9BFFEE9AFEED99FDE842F023
:100F7900DC23ACF0D0E0FFD0E0FED0E0FDAB822076
:100F8900E7101BEB60BAEC2CFCEF33FFEE33FEED00
:100F990033FD0210CFE803F830E705C0F075F00023
:100FA900EF2FFFEE33FEED33FD40B830E7C280AAE4
:100FB90074F8CC6480CCC86480C8F58204604FC3DF
:100FC900EB9FF5F0EA9E42F0E99D42F0E89C45F07E
:100FD900603C501DE5825FFFE582D313CB5BCBF408
:100FE9002B5582FB50280ABA002409B90020088031
:100FF9001DE5825BFBE582D313CF5FCFF4C3132FCB
:101009005582FF50090EBE00050DBD00010CC3EB52
:101019009FF5F0EA9E42F0E99D42F0E89C45F060B8
:0910290007CC4820E701B3EC22DA
:10103200ED33EC33600A047003BD8004ECB2E7FCCC
:01104200228B
:1010430075F020800E75F010800575F0087D007E28
:10105300007F003392D530D5031212A8EC33401031
:10106300EF33FFEE33FEED33FDEC33FCD5F0ED2231
:0E107300E5F0247EA2D513CC92E7CDCEFF226D
:10108100EDD2E7CD33EC3392D524814006E4FFFE67
:10109100FDFC22FCE4CFCECDCC24E0501174FF80C6
:1010A100EDC3CC13CCCD13CDCE13CECF13CF047063
:0710B100F030D5DE0212A8A9
:10250B003A70FA83BCAAE9E43E81E0F8BF9DE9E6A4
:10251B003F80000039283C1ABB9969663DA335E31F
:10252B00BF255DE73FC90FDB418DDBCCC44936EEE0
:10253B0045C9913FC5B0F83D3F800000C317F53446
:10254B00452FFA73C60AFDDD1225FA04A2E19205A6
:10255B001420E01590250B7404121102802612250D
:10256B00FA30E102B20520E0EB8C3C8D3D8E3E8FC4
:10257B003F90251F7404121102A83CA93DAA3EAB43
:10258B003F120E13ED4C6007300504EC6480FC2207
:10259B001225FAC0E08C3C8D3D8E3E8F3F9025433B
:1025AB007403121102A83CA93DAA3EAB3F120E13B5
:1025BB00ECC53CFCEDC53DFDEEC53EFEEFC53FFF5A
:1025CB009025337403121102D082A83CA93DAA3E78
:1025DB00AB3FE58230E007120F1CB20580A6EFCBB4
:1025EB00FFEECAFEEDC9FDECC8FC120F1C8095ED89
:1025FB0033EC547FCC33920524605007D0E0D0E00D
:10260B000210ED7B837AF97922783E120E13EDF9E5
:10261B0033ECF83324815011EFFBEEFA12108112D8
:10262B001043ECB2E7FC120D22ED33EC33602F2498
:10263B0003F8C313FCED92E7FDE82481E4501FEC93
:10264B00F8EDF9EEFAEFFB121081EF04C2E0FCF5A6
:10265B008212104DECB2E7FC120D22E58203FAED6B
:0E266B0033EC3360071413FCED92E7FDEA2216
:1010B800E9D2E7C933E833F892D5EDD2E7CD33EC7E
:0710C80033FC5002B2D522F7
:1010CF00EC30E7100FBF000C0EBE00080DBD000482
:1010DF000BEB6014A2D5EB13FCED92E7FD2274FF2E
:1010EF00FCFDFEFF22E480F8A2D574FF13FC7D8087
:0310FF00E480EF9B
:10110200C0E0EFFBEEFAEDF9ECF8120E13D0E0F5C9
:10111200F0EFFBEEFAEDF9ECF8121336A3A3A3A35A
:10112200E8C0E0E9C0E0EAC0E0EBC0E0C0F0120EC7
:1011320013121353A3A3A3A3120D22D0F0D0E0FBEA
:0D114200D0E0FAD0E0F9D0E0F8D5F0D422EA
:03000000022ECC01
:0C2ECC00787FE4F6D8FD758165022A3A93
:10114F00E709F608DFFA8046E709F208DFFA803E82
:10115F0088828C83E709F0A3DFFA8032E309F6086F
:10116F00DFFA8078E309F208DFFA807088828C83D7
:10117F00E309F0A3DFFA806489828A83E0A3F6088B
:10118F00DFFA805889828A83E0A3F208DFFA804C65
:10119F0080D280FA80C680D4806980F2803380103C
:1011AF0080A680EA809A80A880DA80E280CA8033A5
:1011BF0089828A83ECFAE493A3C8C582C8CCC5831D
:1011CF00CCF0A3C8C582C8CCC583CCDFE9DEE780ED
:1011DF000D89828A83E493A3F608DFF9ECFAA9F06C
:1011EF00EDFB2289828A83ECFAE0A3C8C582C8CCC2
:1011FF00C583CCF0A3C8C582C8CCC583CCDFEADEDB
:10120F00E880DB89828A83E493A3F208DFF980CC3C
:10121F0088F0EF60010E4E60C388F0ED2402B40435
:10122F000050B9F582EB2402B4040050AF232345DC
:06123F00822390119F7351
:10124500BB010CE58229F582E5833AF583E022505E
:1012550006E92582F8E622BBFE06E92582F8E222A8
:0D126500E58229F582E5833AF583E49322C2
:10127200C2D5EC30E709B2D5E4C39DFDE49CFCEE97
:1012820030E715B2D5E4C39FFFE49EFE12143FC3BC
:10129200E49DFDE49CFC800312143F30D507C3E4B7
:0612A2009FFFE49EFE2206
:0E12A800C3E49FFFE49EFEE49DFDE49CFC2257
:1012B600BB010789828A830214945005E9F8021358
:1012C6002ABBFE05E9F80214A089828A8302133636
:1012D600BB010DE58229F582E5833AF58302149474
:1012E6005007E92582F802132ABBFE07E92582F892
:1012F6000214A0E58229F582E5833AF583021336C6
:10130600BB010DE58229F582E5833AF58302139F39
:101316005007E92582F8021393BBFE07E92582F8F8
:041326000214C522C6
:0C132A00E6FC08E6FD08E6FE08E6FF22EF
:10133600E493FC740193FD740293FE740393FF22FD
:0D134600E6FB08E6F908E6FA08E6CBF82217
:10135300E493F8740193F9740293FA740393FB22F0
:10136300BB010DE58229F582E5833AF5830214ACCE
:101373005007E92582F8021346BBFE07E92582F8E8
:101383000214B8E58229F582E5833AF58302135303
:0C139300ECF608EDF608EEF608EFF62286
:0C139F00ECF0A3EDF0A3EEF0A3EFF022C1
:1013AB00D083D082E493F608740193F60874029309
:0913BB00F608740393F674047340
:1013C400A8828583F0D083D0821213DB1213DB1240
:1013D40013DB1213DBE473E493A3C583C5F0C58365
:1013E400C8C582C8F0A3C583C5F0C583C8C582C873
:0113F40022D6
:1013F500BB010789828A830213C45005E9F80213E9
:0A140500ABBBFE05E9F80214D1228A
:10140F00BB010DE58229F582E5833AF5830213C40A
:10141F005007E92582F80213ABBBFE07E92582F8D6
:04142F000214D122B0
:0C143300A42582F582E5F03583F58322C4
:10143F00BC000BBE0029EF8DF084FFADF022E4CC91
:10144F00F875F008EF2FFFEE33FEEC33FCEE9DEC5A
:10145F00984005FCEE9DFE0FD5F0E9E4CEFD22EDA0
:10146F00F8F5F0EE8420D21CFEADF075F008EF2FEA
:10147F00FFED33FD4007985006D5F0F222C398FDDB
:05148F000FD5F0EA2278
:0C149400E0FCA3E0FDA3E0FEA3E0FF22CB
:0C14A000E2FC08E2FD08E2FE08E2FF2288
:0C14AC00E0F8A3E0F9A3E0FAA3E0FB22C3
:0D14B800E2FB08E2F908E2FA08E2CBF822B4
:0C14C500ECF208EDF208EEF208EFF22263
:1014D100D083D082E493F208740193F208740293EA
:0914E100F208740393F274047321
:00000001FF
